:0200000490006A
:10000000B8760124B102009001360090452F00908F
:10001000B535009077080090014100900000000085
:10002000000000000000000000000000F138009017
:100030008508009000000000AD360090F338009075
:10004000CB020090CB020090CB020090CB0200903C
:10005000CB020090CB020090CB020090CB0200902C
:10006000CB020090CB020090CB020090CB0200901C
:10007000CB020090CB020090CB020090CB0200900C
:10008000CB020090CB020090CB020090CB020090FC
:10009000CB020090CB020090CB020090CB020090EC
:1000A000CB020090CB020090CB020090CB020090DC
:1000B000CB020090CB020090CB020090CB020090CC
:1000C000CB020090CB020090CB020090CB020090BC
:1000D000CB020090CB020090CB020090CB020090AC
:1000E000CB020090CB02009000000000CB020090F9
:1000F000CB020090CB020090CB020090CB0200908C
:10010000CB020090CB020090CB020090CB0200907B
:10011000CB020090CB020090CB020090CB0200906B
:10012000CB020090CB020090CB020090CB0200905B
:10013000CB020090CB020090CB020090CB0200904B
:1001400000000000000000000000000000000000AF
:10015000CB020090CB020090CB020090CB0200902B
:10016000CB020090CB020090CB020090CB0200901B
:10017000CB020090CB020090CB020090CB0200900B
:10018000CB020090CB020090CB020090CB020090FB
:10019000CB020090CB020090CB020090CB020090EB
:1001A000B92F0090CB02009079080090CB0200900C
:1001B000CB020090CB020090CB020090CB020090CB
:1001C000CB020090CB020090CB020090CB020090BB
:1001D000CB020090CB020090CB020090CB020090AB
:1001E000CB020090CB020090CB020090CB0200909B
:1001F000CB020090CB020090CB020090CB0200908B
:10020000CB020090CB020090CB020090CB0200907A
:10021000CB020090CB020090CB020090CB0200906A
:10022000CB020090CB020090CB02009000000000B7
:10023000CB020090CB02009000000000CB020090A7
:10024000CB020090CB020090CB020090CB0200903A
:10025000CB020090CB020090CB020090CB0200902A
:10026000CB020090CB020090CB020090CB0200901A
:10027000CB020090CB020090CB0200900000000067
:10028000CB020090CB020090CB0200900000000057
:1002900000000000CB020090DFF810D000F07CFAE4
:1002A000004800475D660090AFF30080B8760124F7
:1002B0000648804706480047FEE7FEE7FEE7FEE700
:1002C000FEE7FEE7FEE7FEE7FEE7FEE7D93900902E
:1002D000990200902DE9F05F0546002092469B466A
:1002E00088460646814640241BE02846414647464C
:1002F000224600F089F853465A46C01A914110D35D
:1003000011461846224600F016F82D1A67EB010830
:100310004F4622460120002100F00DF817EB00099E
:100320004E41201EA4F10104DFDC484631462A4636
:100330004346BDE8F09F202A04DB203A00FA02F190
:10034000002070479140C2F1200320FA03F31943C3
:1003500090407047202A06DBCB17203A41FA02F082
:1003600043EAE07306E041FA02F3D040C2F1200212
:10037000914008431946704740EA01039B0703D0A8
:1003800009E008C9121F08C0042AFAD203E011F8D4
:10039000013B00F8013B521EF9D27047D2B201E096
:1003A00000F8012B491EFBD270470022F6E710B57A
:1003B00013460A4604461946FFF7F0FF204610BDD3
:1003C00010B5002200E0521C835C8C5CA34201D17A
:1003D000002BF8D1D8B2E1B2401A10BD30B50B46AF
:1003E000014600202022012409E021FA02F59D4265
:1003F00005D303FA02F5491B04FA02F52844151E39
:10040000A2F10102F1DC30BD202A04DB203A21FAFE
:1004100002F00021704721FA02F3D040C2F120021D
:1004200091400843194670472DE9FE4F804681EA06
:100430000300C00F0C46009021F0004123F000455E
:10044000B8EB0200A94105D24046214690461C4621
:100450000B46024623F00040104347D0270DC7F358
:100460000A00C3F30A510290401A019040286BDA47
:10047000C3F3130040F4801B0098924620B1002380
:10048000D2EB030A63EB0B0B01985946C0F1400213
:100490005046FFF750FF06460D4650465946019A12
:1004A000FFF758FF10EB08006141002487EA115262
:1004B00084EAE7731A4340D0009A62B3019A012A92
:1004C0004FEA075215DC001B61EB02014FF00042BE
:1004D00002EA0752CDE90042001C41F58011324684
:1004E0002B4600F07AF903B0BDE8F08F4046214674
:1004F000F9E7001B61EB0201001C41F580130018B5
:100500005B412018A2F5001747EB030140EAD570C4
:10051000B6196D4111E06D084FEA360645EAC0751F
:100520004FEA0752001B61EB0201001C41F58011EC
:1005300049084FEA30000019514132462B4603B0BA
:10054000BDE8F04F00F03AB90098012240000023C6
:10055000D0EB020263EBE073009821464FEAE074AF
:10056000B8EB000061EB0401E9E783F000435BE7CF
:1005700081F0004158E72DE9FE4F81EA030404F0C1
:10058000004421F0004100944FF0000B23F00043A1
:1005900050EA01045ED052EA03045BD0C3F30A546C
:1005A000C1F30A552C44A4F2F3340194A0FB025485
:1005B000C1F3130141F48011C3F3130343F4801317
:1005C00001FB024400FB034E840A970A44EA81546B
:1005D00047EA8357A4FB076802958D0A05FB078548
:1005E0004FEA932C04FB0C542705029D4FEA065852
:1005F00047EA1637B5EB08056EEB070C870E920E2F
:1006000047EA811742EA8312A7FB0201B6EB0B010E
:1006100064EB00042B0D43EA0C335E1844EB1C50D2
:10062000DA465146E7FB0201C5F313044FEA0B33E8
:1006300043EA14534FEA0432019C43EA0603A4F14F
:100640000C040294009CCDE900B400F0C6F803B09D
:10065000BDE8F08F00200146F9E72DE9F04D81EA71
:10066000030404F0004B21F0004514464FF0000A4B
:1006700023F0004150EA050220D054EA01021DD0C7
:10068000C5F30A570246C5F31303C1F31300C1F3C0
:100690000A5640F4801543F48013A7EB0608101B9C
:1006A000D64608F2FD3873EB050002D308F10108C5
:1006B00001E092185B41B8F1000F03DA0020014617
:1006C000BDE8F08D00204FF48011064684460EE010
:1006D000171B73EB050705D3121B63EB05030643DA
:1006E0004CEA010C49084FEA300092185B4150EA8D
:1006F0000107EDD152EA030012D082EA040083EA36
:100700000501084305D0101BAB4106D2012200238E
:1007100006E000224FF0004302E06FF001025310A8
:100720001AEB06004CEB085110EB0A0041EB0B01F1
:10073000BDE8F04D00F042B8C1F30A52C1F3130115
:1007400040F2FF3341F480119A4202DA0020014660
:10075000704740F233439A42A2F2334202DC5242E3
:10076000FFF752BEFFF7E7BD30B5041E71F100047C
:1007700004DB4FF00044404264EB0101141E73F1AE
:10078000000405DB1C464FF00043524263EB0403B8
:10079000994208BF904230BD064C074D06E0E06824
:1007A00040F0010394E8070098471034AC42F6D3B8
:1007B000FFF776FD8CBA0090ACBA009010B5141E0D
:1007C00073F1000408DA401C41F1000192185B410A
:1007D0001A4301D120F0010010BD2DE9F04D9246E1
:1007E0009B4611B1B1FA81F202E0B0FA80F22032F8
:1007F0009046FFF7A0FD04460F4640EA0A0041EA92
:100800000B0153465A46084313D0114653EA0100E0
:1008100019D0C8F140025046FFF7F6FD05460E46D6
:10082000504659464246FFF786FD084305D0012051
:1008300004E020463946BDE8F08D0020054346EA35
:10084000E0762C4337430A986305E40AA0EB0800DE
:100850000022FD0A44EA47540A3002D5002001462E
:10086000E9E7010510196941DDE908450019694109
:10087000BDE8F04DA2E7FEE7014800F015B9000021
:100880008C000024704772B6FEE7F0B5D1E908434A
:10089000CD690A68C2B10268254322F4F8421343C5
:1008A0001D430560D1E90125D1E903364C692A438E
:1008B0004568334389691A43EB0B2243DB030A4340
:1008C0001A4342600020F0BDD1E9012ED1E9036C4A
:1008D000D1E9057142EA0E0246EA0C0632433A4378
:1008E0000A4301682A4322431A436FF30E010A4365
:1008F0000260E7E7426943F6FE739A4342EA410128
:1009000041610020704770B591E81C00C9686FF024
:100910001F0506691A4305EB441444EA41210A43C2
:1009200006EA45431A430261002070BD2DE9F04FED
:100930008B8A6FF00F05264C4FF07F4BD1F80C904F
:1009400004EB03536FF0FF044FEA042A1AB38668DE
:100950004FEA09321F4FA2F580521A433E403243FC
:100960008260D1E900278E68521E05EB07150F8AB9
:100970002A43C56804EB06240E7E0AEB0743224394
:100980001A430BEB06610A4305F070431A43C26039
:100990000020BDE8F08F91E804110F4E521E0F8A1F
:1009A00005EB08152A4304EB0C2C06EB09350E7EEB
:1009B00042EA0C022A4385680AEB074422431A43A1
:1009C0000BEB06610A4305F070431A438260DFE7D0
:1009D0000000F0FFFF0F0FFF00F0FFFF7047000067
:1009E000F0B590F86020012A22D0C1EBC1020127A6
:1009F00080F86070022380F8613000EB8202284D9D
:100A0000138F168EB2F83CC0D46A1B05283244EA14
:100A1000064643EA4C530A2C46EA03060AD0092C40
:100A200008D0137B46EA036349B10B2C1AD01DE0B2
:100A30000220F0BDD36803F07F433343F4E701683D
:100A40004C6AAC431C434C62016813688B6151686B
:100A50000A2901D009291BD1D168026821F07F4100
:100A6000916215E0118B0F4D43EA81430168CC6917
:100A7000AC431C43CC61016813680B6151680A29BF
:100A800001D0092904D1D168026821F07F411162A7
:100A9000002180F8617080F860100846F0BD000009
:100AA0000F0033FF0F003FFF2DE9F04704460068B9
:100AB00000274FF004084FF0010946680568F10768
:100AC00014D0E90512D5036823F480730360606EC7
:100AD00040F0010060662068C0F8089084F86180EA
:100AE00084F86070616A09B120468847B00615D560
:100AF000A80413D520682022036823F40053036060
:100B000020688260606E40F00200606684F8618058
:100B100084F86070616A09B120468847300715D5AE
:100B2000280513D520680822036823F400630360B6
:100B300020688260606E40F00400606684F8618026
:100B400084F86070616A09B12046884770070CD547
:100B500068050AD52068026822F480620260206875
:100B6000C0F80880204600F071F8B00713D5A8053A
:100B700011D520680222036823F400730360206803
:100B80008260606E606684F8619084F86070216AAB
:100B900009B120468847F00612D5E80410D5206830
:100BA000016821F480510160226810219160616E1A
:100BB000616684F86190204684F86070FFF70EFF4C
:100BC000BDE8F0872DE9F041040004D094F86100FD
:100BD000002518B107E00120BDE8F081204684F827
:100BE000605000F035F8184E022084F861000123AF
:100BF000D4E90010D4F81CC040F207120F6840EA94
:100C00000C003740384308602068A769A168466B2C
:100C100039439643314341632068E268016C6FF3C6
:100C20000F01114301642068218AA28A466B0905DD
:100C300041EA425126F4401211434163656684F84B
:100C400061300020C8E70000BFFFF8FF70470000D8
:100C500008B500680B49884212D10B48016841F081
:100C60001001016000680022062100F010000090D1
:100C70005A2000F05DFCBDE808405A2000F04ABC54
:100C800008BD000000100052D4440258F0B5B7B0BF
:100C900014216846FFF789FB3848016800296AD1AA
:100CA00001210160C02106A8FFF77FFB00201890FA
:100CB0004FF080710446CDE9061006A800F0EAFD69
:100CC00008B1FFF7E0FD2E48016841F48051016052
:100CD0000068022502AA694600F48050059040F29F
:100CE000FF60CDE90005032626480C2782E8D000E6
:100CF00000F056F802AA4FF68370CDE900052248AD
:100D0000694682E8D00000F04BF84FF47F40694616
:100D100002AACDE900051D4882E8D00000F040F8A5
:100D200002AA48F23710CDE900051948694682E861
:100D3000D00000F035F802AA4CF20370CDE90005AE
:100D40001448694682E8D00000F02AF802AA4FF65B
:100D50003F00CDE900051048694682E8D00000F068
:100D60001FF80D20694602AACDE900050B4882E86C
:100D7000D00000F015F837B0F0BD000000000024EE
:100D8000D44402580020025800100258001C025897
:100D900000180258000C02580014025800080258AB
:100DA0002DE9F84F03247D4D00234FF001094FF04A
:100DB000B04B4FF00F0AE9E009FA03F73A4076D05A
:100DC0000E7906F00306012E01D0022E18D1D0F8BC
:100DD00008C04FEA430ECE6804FA0EF82CEA080C5D
:100DE00006FA0EF646EA0C068660D0F804C00E79C4
:100DF0002CEA070CC6F300169E4046EA0C06466035
:100E00000E79F643B6070BD0C6684FEA43088F68E1
:100E100004FA08FC26EA0C0607FA08F73743C7600D
:100E20000E7906F00306022E12D1DE080F694FEA92
:100E3000437C00EB8606B646366A4FEADC6C0AFA5B
:100E40000CF807FA0CF726EA08063743CEF82070AC
:100E50000F7906684FEA430807F0030704FA08FC15
:100E600007FA08F726EA0C06374307604E6816F4BF
:100E7000403F1CD04A4E376847F00207376036685B
:100E80009F0706F00206009623F0030606F1B0461F
:100E9000B6463F0FD6F80864DFF808810AFA07FC67
:100EA000404526EA0C0603D14FF0000C41E06CE00F
:100EB000DFF8F4C0604502D14FF0010C39E0DFF8F3
:100EC000ECC0604502D14FF0020C32E0DFF8E0C028
:100ED000604502D14FF0030C2BE0DFF8D8C060452D
:100EE00002D14FF0040C24E0DFF8CCC0604502D101
:100EF0004FF0050C1DE0DFF8C4C0604502D14FF093
:100F0000060C16E0DFF8B8C0604502D14FF0070CC0
:100F10000FE0DFF8B0C0604502D14FF0080C08E0E8
:100F2000DFF8A4C0604502D14FF0090C01E04FF09A
:100F30000A0C0CFA07FC4CEA060CCEF808C44F6801
:100F4000DBF80060FF0226EA020600D516435F4682
:100F5000CBF80060D1F804C0DBF804605FEA8C2CA9
:100F600026EA020600D516437E606E684F6826EAC0
:100F70000206BF0300D516436E602E684F6826EA4E
:100F80000206FF0300D516432E605B1C0A6832FA86
:100F900003F67FF411AFBDE8F88F00008000005821
:100FA000F444025800000258000402580008025895
:100FB000000C025800100258001402580018025881
:100FC000001C025800200258002402580069084002
:100FD00000D0012070470AB1816170470904FBE726
:100FE00001480068000C70470010005C01488068F0
:100FF000704700000800002402488168027811440C
:101000008160704708000024032010B500F0B0FA9A
:1010100001F08AFA0F4A104914681368C4F30322D6
:1010200003F00F038A5CC95C02F01F0201F01F018C
:10103000D0400A4A20FA01F11160094908600F20E6
:1010400000F010F808B1012010BD00F055FA0020A2
:1010500010BD00001844025872720090180000245D
:101060001400002470B50D4D04462878A0B14FF44B
:101070007A71B1FBF0F00A490968B1FBF0F001F0B8
:1010800011FE48B9102C07D200222146501E00F054
:101090004FFA00206C6070BD012070BD0800002474
:1010A000140000242DE9F041044690F8A0001646F3
:1010B0000F4601281DD0012584F8A050022084F895
:1010C000A10006EB860000EBC600342204EB800092
:1010D0003830FFF751F932463946204601F072FFA9
:1010E000216800204D6284F8A15084F8A000BDE87A
:1010F000F0810220FBE770472DE9F04104460068CB
:1011000000274FF00408856B466B690715D57107FA
:1011100013D5426B22F0040242632068C0F83C8081
:10112000D4F8A40040F00100C4F8A40084F8A18021
:10113000204684F8A070FFF7DEFFA80716D5B00799
:1011400014D520680222436B23F002034363206816
:10115000C263D4F8A40040F00200C4F8A40084F8EC
:10116000A180204684F8A070FFF7C5FF05EA0600BD
:101170004FF00108C0070ED021684A6B22F001022F
:101180004A632168C1F83C8084F8A180204684F835
:10119000A07000F091F8280710D530070ED5206810
:1011A0000822436B23F0080343632068C26384F87A
:1011B000A180204684F8A07000F0FAF8BDE8F08124
:1011C0002DE9F041040004D094F8A100002518B1E5
:1011D00007E00120BDE8F081204684F8A05000F02F
:1011E0006DF83448022184F8A110012202CC8B69E9
:1011F00023F070438B6194E84A001943E3681E436F
:1012000054F8043D31439E693143996121688B68EC
:1012100003408B602168A68AA7698B683B4343EA39
:1012200006438B602168CB680340CB602168A38BA9
:10123000276ACE683E4346EA0346CE6021680B69C2
:1012400003400B612368A68CA76A1969394341EAF8
:101250000641196121684B6903404B612068A38DE9
:10126000266B4169314341EA03414161236894F8A7
:10127000351094F83600DE6A000406F07F46DE6220
:10128000236840EA012094F83460D96A314301436D
:10129000D9622068416B41F0060141632068816991
:1012A00041F001018161C4F8A45084F8A12000201C
:1012B00090E7000000F800F070470000F0B5B7B00C
:1012C0000446142130A8FFF770F8C0216846FFF7E4
:1012D0006CF83249206888425DD10DF1280C00215C
:1012E00002240D46012208238CE81C004FF44067BD
:1012F000CDE90F71400411910526CDE90001684642
:10130000CDE90D4600F0C6FA08B1FFF7BCFA244853
:10131000016841F008010160006800F008003590A4
:101320001F48001F016841F480610160016801F4F9
:1013300080613591016841F400710160016801F438
:1013400000713591016841F480710160006830A935
:10135000032600F4807035900E27FF2081E8F1000D
:101360001048FFF71DFD30A94FF6FF7081E8F1002E
:101370000D48FFF715FD30A94FF4704081E8F100EA
:101380000A48FFF70DFD00220621582000F0D0F892
:10139000582000F0BFF837B0F0BD0000001000503A
:1013A000E444025800280258002402580020025841
:1013B000704770B5044690F8A0000E46012820D072
:1013C00003EB830000EBC301012584F8A050022049
:1013D00084F8A10004EB81018E63086E3044C1E9FA
:1013E0000F02486E1044486438311A46204601F016
:1013F000E9FD216800204D6284F8A15084F8A00026
:1014000070BD022070BD70B5044690F8A0000E4675
:10141000012820D003EB830000EBC301012584F8F1
:10142000A050022084F8A10004EB8101886B3044B5
:10143000C863086C10444864C1E9186238311A4620
:10144000204601F0BFFD216800204D6284F8A150C4
:1014500084F8A00070BD022070BD0000F0B5154CEE
:101460004378211D0A1D23600378F3B143680B60A4
:10147000057BC67A817A437B2D07847B45EA066526
:10148000C77B90F809C0067A90F800E045EAC140B1
:1014900040EA834040EA444040EA074040EA0C20EA
:1014A00040EA460040EA0E0001E0002008601060BB
:1014B000F0BD000098ED00E0BFF35F8F044800210D
:1014C0000368034A23F4803303607032116070476D
:1014D00024ED00E0074A40F0010006497032106038
:1014E000086840F480300860BFF34F8FBFF36F8F00
:1014F0007047000024ED00E0054808B5016841F0A0
:1015000002010160006800F00200009008BD0000C8
:10151000F4440258002809DB410900F01F02890049
:10152000012001F1E0219040C1F800017047000066
:101530000E4BF0B41B680D46C3F30223C3F107063C
:10154000042E00D90426191D072901D2002300E02A
:10155000DB1E012404FA06F19C40491E2940641E4A
:10156000994014402143F0BC02F032BE0CED00E083
:10157000064900F0070210B54FF6FF040868044B57
:10158000204040EA02201843086010BD0CED00E046
:101590000000FA05134970B50A68D243520705D511
:1015A000096801F00701814213D118E00A6822F0AE
:1015B000070202430A60FFF719FD0A4D4FF47A76DD
:1015C0000446083D07E000BFFFF710FD001BB042D6
:1015D00001D9012070BD2868C0438004F4D40020E4
:1015E00070BD00000C48025810B500F057FF0549C7
:1015F0000968054AC1F30211515C01F01F01C8409E
:1016000010BD00002044025872720090494930B564
:10161000484C0B1D0A68143409681D68246802F0E0
:101620000303C5F30012C1F30531C4F3CC04002950
:1016300014FB02F200EE102AF8EE400A75D03F4A81
:101640009FED3D1AB7EE000A6BB1DFED3D1A012B9D
:1016500001D0022B64D002EE101A1168F8EE422A73
:1016600081EEA22A21E0334C283C23689B0612D548
:10167000344B246801EE901A1168C4F3C104F8EEEB
:10168000612AE34001EE903AC1F30801F8EE611AD5
:1016900081EEA22A0BE001EE901ADFED2B2A00BFAB
:1016A000F8EE611A116882EEA12AC1F3080101EE79
:1016B000901A1168F8EE611A40EE811A71EE800AF4
:1016C00062EE200AC1F3462101EE101AB8EE411A6B
:1016D00031EE001AC0EE811ABCEEE11A80ED001A5C
:1016E0001168C1F3064101EE101AB8EE411A31EE4D
:1016F000001AC0EE811ABCEEE11A80ED011A1168E1
:10170000C1F3066101EE101AB8EE411A31EE000A7B
:1017100080EE801ABCEEC10A80ED020A30BD04E002
:1017200001EE901ADFED092ABAE70021016041605D
:101730008160F3E728440258000000393844025819
:101740000024744A0090D0030024744C20BCBE4B8B
:10175000494930B5484C0B1D0A681C3409681D689E
:10176000246802F00303C5F30022C1F30551C4F35A
:10177000CC04002914FB02F200EE102AF8EE400A15
:1017800075D03F4A9FED3D1AB7EE000A6BB1DFED11
:101790003D1A012B01D0022B64D002EE101A116801
:1017A000F8EE422A81EEA22A21E0334C283C23683D
:1017B0009B0612D5344B246801EE901A1168C4F3CD
:1017C000C104F8EE612AE34001EE903AC1F308014A
:1017D000F8EE611A81EEA22A0BE001EE901ADFED1D
:1017E0002B2A00BFF8EE611A116882EEA12AC1F31C
:1017F000080101EE901A1168F8EE611A40EE811AA4
:1018000071EE800A62EE200AC1F3462101EE101A41
:10181000B8EE411A31EE001AC0EE811ABCEEE11AA0
:1018200080ED001A1168C1F3064101EE101AB8EEFE
:10183000411A31EE001AC0EE811ABCEEE11A80EDB9
:10184000011A1168C1F3066101EE101AB8EE411ACF
:1018500031EE000A80EE801ABCEEC10A80ED020A69
:1018600030BD04E001EE901ADFED092ABAE700214D
:10187000016041608160F3E72844025800000039AC
:10188000404402580024744A0090D0030024744C51
:1018900020BCBE4B2DE9FE4F0546DFF8E48350F82F
:1018A000081B0024F64FC943019005F12800264685
:1018B00008F12408009008011DD4A86E50B1B0F5BD
:1018C000801F0CD0B0F5001F0ED0B0F5401F1ED009
:1018D00001240FE0386840F40030386017E00198C8
:1018E000022101F0E5FE03E00098022101F070FF03
:1018F00004000CD026462888C043C00523D4A86D18
:1019000005281ED2DFE800F00C11161B1B00AA6E82
:10191000D8F8001021F440111143C8F80010EAE78C
:10192000386840F40030386009E00198002101F087
:10193000BFFE03E00098002101F04AFF044674B1A5
:1019400000E0012426462888C043800528D4E86D9D
:1019500080281ED00CDC90B140280ED114E0AA6D76
:10196000D8F8001021F007011143C8F80010EAE789
:10197000C02813D0B0F5807F10D001240FE0386864
:1019800040F40030386009E00198002101F090FE39
:1019900003E00098002101F01BFF04469CB126469D
:1019A0002888DFF8DC92C04309F12C0940052CD4CB
:1019B000D5F8A800B0F5800F20D00DDCA0B1B0F5AF
:1019C000001F0FD115E0EA6DD8F8001021F4E07186
:1019D0001143C8F80010E3E7B0F5C00F13D0B0F51D
:1019E000000F10D001240FE0386840F40030386058
:1019F00009E00198002101F05BFE03E0009800215E
:101A000001F0E6FE04467CB126462888C043000566
:101A10002DD4D5F8AC00B0F1007F21D00EDCA8B1F8
:101A2000B0F1807F10D116E0D5F8A820D9F80010C9
:101A300021F460011143C9F80010E6E7B0F1407FDE
:101A400013D0B0F1806F10D001240FE0386840F45B
:101A50000030386009E00198002101F029FE03E020
:101A60000098002101F0B4FE044674B126462868AF
:101A7000C04380011FD4E86CD8B110280FD02028B3
:101A800012D0302815D0012414E0D5F8AC20D9F8B4
:101A9000001021F0E0611143C9F80010E7E7386851
:101AA00040F40030386004E00198022101F000FEAB
:101AB000044674B126462888C043C0042BD4286E3F
:101AC000B0F5005F20D00DDCA0B1B0F5805F0FD184
:101AD00015E06B48EA6C2030016821F030011143B9
:101AE0000160E8E7B0F5405F13D0B0F5804F10D04B
:101AF00001240FE0386840F40030386009E00198B4
:101B0000002101F0D5FD03E00098002101F060FE06
:101B100004468CB126462888C043800429D4686EC8
:101B2000B0F5403F23D010DC08B3B0F5803F14D0AF
:101B3000B0F5003F0FD115E02A6ED8F8001021F45F
:101B4000E0411143C8F80010E5E7B0F5802F0ED052
:101B5000B0F5A02F0BD001240AE00198012101F07B
:101B6000A7FD03E00098012101F032FE044694B184
:101B700026462888C04340042AD4D5F8B000B0F1E6
:101B8000405F23D010DC08B3B0F1805F14D0B0F117
:101B9000005F0FD115E06A6ED8F8001021F4E02143
:101BA0001143C8F80010E4E7B0F1804F0ED0B0F157
:101BB000A04F0BD001240AE00198012101F078FD2B
:101BC00003E00098012101F003FE044674B12646AB
:101BD0002888C04300041FD4286FD8B1B0F1805FBB
:101BE0000ED0B0F1005F10D0012414E0D5F8B02081
:101BF000D9F8001021F0E0411143C9F80010E7E7DF
:101C0000386840F40030386004E00198012101F0A8
:101C10004FFD044674B126462868C043C0011ED457
:101C2000A86CD0B101280ED0022811D0032814D0FE
:101C3000012413E02A6FD8F8001021F0405111431D
:101C4000C8F80010E8E7386840F40030386004E075
:101C50000198022101F02CFD0446ACB1264628680B
:101C6000DFF81CB0C043ABF11C0B400252D4054856
:101C7000016841F480710160FFF7B8F9824611E014
:101C80002C44025800480258FA48AA6C016821F016
:101C9000030111430160E2E7FFF7A8F9A0EB0A0096
:101CA000642835D8F4480068C005F5D58CBBDFF84A
:101CB000C4A3B5F8B4100AF1240ADAF8000001F45C
:101CC000407100F44070884211D0DAF80010DAF860
:101CD000002021F4407142F48032CAF80020DAF882
:101CE000002022F48032CAF80020CAF80010D5F88B
:101CF000B400B0F5807F1AD1FFF778F9029012E0B6
:101D0000FFF774F90299411A41F2883081420AD9E9
:101D1000032426462878DFF85CA3C0430AF1080AAA
:101D2000C00721D03CE0DAF800008007E8D5D5F8FC
:101D3000B410C1F30120032858460DD0016821F4E6
:101D40007C510160B5F8B420DAF80010C2F30B0240
:101D50001143CAF80010DDE7C84A036802EA11120D
:101D600023F47C511143ECE7E86F182816D005DC0A
:101D7000A0B1082808D0102804D10AE020280DD0EE
:101D800028280BD001240AE00198012101F090FCE1
:101D900003E00098012101F01BFD044664B12646D2
:101DA0002878C04380071ED4A86F062819D2DFE820
:101DB00000F0160C11161616EA6FDAF8001021F072
:101DC00038011143CAF80010EAE70198012101F037
:101DD0006FFC03E00098012101F0FAFC04467CB19D
:101DE00000E0012426462878C04340071FD4D5F8D8
:101DF0009400062819D2DFE800F0160C111616160A
:101E0000AA6FDAF8001021F007011143CAF8001098
:101E1000E9E70198012101F04BFC03E00098012162
:101E200001F0D6FC0446A4B100E00124264628783F
:101E3000C04380062BD4D5F89000B0F1405F24D089
:101E400011DC10B3B0F1805F15D0B0F1005F10D19C
:101E500016E0D5F89420D9F8001021F007011143BD
:101E6000C9F80010E3E7B0F1804F0ED0B0F1A04FF9
:101E70000BD001240AE00198002101F019FC03E0D5
:101E80000098022101F0A4FC044694B1264628786B
:101E9000C04340062BD4D5F89C00B0F5406F24D049
:101EA00011DC10B3B0F5806F15D0B0F5006F10D114
:101EB00016E0D5F89020DAF8001021F0E041114347
:101EC000CAF80010E3E7B0F5805F0ED0B0F5A05F70
:101ED0000BD001240AE00198002101F0E9FB03E0A6
:101EE0000098022101F074FC044694B1264628783B
:101EF000C04300062BD4D5F8A000B0F5C04F24D0C5
:101F000011DC10B3B0F5005F15D0B0F5804F10D1E3
:101F100016E0D5F89C20D9F8001021F4E0511143C7
:101F2000C9F80010E3E7B0F5004F0ED0B0F5204F30
:101F30000BD001240AE00198002101F0B9FB03E075
:101F40000098022101F044FC044654B1264628784A
:101F5000C04300071ED4D5F88400B0F5805F0AD0D6
:101F60000FE0D5F8A020D9F8001021F4604111430A
:101F7000C9F80010EBE70098022101F029FC00B13C
:101F80000126D5F88420DAF8001021F440511143DD
:101F9000CAF800102878C043C00613D4D5F89800BA
:101FA000B0F5807F05D10098022101F011FC00B14D
:101FB0000126D5F89820D9F8001021F4407111437A
:101FC000C9F800102868C043000316D4D5F8A4004F
:101FD00038B1B0F5803F09D0B0F5003F0BD00124F7
:101FE0000AE00198002101F063FB03E00098022160
:101FF00001F0EEFB04468CB126462868C04340033E
:1020000022D4D5F88800B0F5801F11D0B0F5001F9C
:1020100013D0B0F5401F15D0012414E0D5F8A4204A
:10202000D9F8001021F440311143C9F80010E4E759
:10203000386840F40030386004E00098012101F075
:10204000C7FB04465CB126462868C043C00323D4BE
:10205000286DA8B1B0F5803F17D001241BE0D5F85A
:102060008820DAF8001021F440111143CAF800105A
:10207000EAE700004C44025800480258CFFFFF0036
:10208000386840F40030386004E00198022101F023
:102090000FFB0446E4B126462868C043800005D4FF
:1020A0000098022101F094FB00B101262868C0438A
:1020B00080031BD4D5F88000B0B1B0F5807F0FD07D
:1020C000B0F5007F10D0B0F5407F0DD001240CE0BA
:1020D0005A482A6D016821F4803111430160DBE721
:1020E000386840F400303860ECB326462868C043B6
:1020F000C00207D46A6FD8F8001021F000411143E4
:10210000C8F800102868C043C00008D4D5F8B8202B
:10211000DBF8001021F480411143CBF8001028684F
:10212000C043800207D4EA6ED8F8001021F0807115
:102130001143C8F800102868C04340000CD4DBF8F5
:10214000001021F40041CBF80010DBF80010D5F8A6
:10215000BC201143CBF800102868C04308D437488E
:102160006A6D016800E018E021F040511143016000
:102170002868C043000208D4D5F88C20DAF8001093
:1021800021F440011143CAF8001028790024C0430B
:1021900000F0010020430AD00FE0D5F88020DAF8E3
:1021A000001021F440711143CAF800109EE7019815
:1021B000002101F07DFA00B106462879C04300F005
:1021C0000200204305D10198012101F071FA00B10C
:1021D00006462879C04300F00400204305D1019849
:1021E000022101F065FA00B106462879C04300F0EB
:1021F0000800204305D10098002101F0E9FA00B160
:1022000006462879C04300F01000204305D100980D
:10221000012101F0DDFA00B106462879C04300F043
:102220002000044304D10098022101F0D1FA00B942
:1022300016B10120BDE8FE8F0020FBE74C44025898
:102240002DE9F05F04000F467ED0DFF83882D8F821
:10225000000000F00F00B8420CD2D8F8001021F0B6
:102260000F013943C8F80010D8F8000000F00F0043
:10227000B84269D12078844D40070AD52069296881
:1022800001F07001884204D9296821F070010143EE
:10229000296020787C4E361D00070AD560693168B8
:1022A00001F07001884204D9316821F070010143C6
:1022B00031602078C0060AD5A069316801F4E06178
:1022C000884204D9316821F4E0610143316020780B
:1022D000DFF8B4B180060BF1080B0CD5E169584664
:1022E000DBF8002002F07002914204D9026822F06B
:1022F00070020A430260207880070AD5E0682968E6
:1023000001F00F01884204D9296821F00F0101432F
:1023100029602078C0073ED05B49A2682868183938
:1023200020F47060104328606068022818D00328E9
:1023300019D00968012819D0490700294ADADFF8BD
:1023400048A1AAF1080A00E044E0DAF8002022F0EF
:1023500007020243CAF80020FEF748FE814612E059
:1023600009688903E9E709688901E6E7C905E4E73F
:10237000FEF73CFEA0EB090141F28830814202D910
:102380000320BDE8F09F6168DAF8000000F0380033
:10239000B0EBC10FECD1207880070AD5E06829683E
:1023A00001F00F01884204D2296821F00F01014396
:1023B0002960D8F80010404601F00F01B9420BD94E
:1023C000016821F00F0139430160006800F00F003F
:1023D000B84201D00120D4E7207840070AD520690F
:1023E000296801F07001884204D2296821F0700147
:1023F00001432960207800070AD56069316801F03F
:102400007001884204D2316821F0700101433160CB
:102410002078C0060AD5A069316801F4E0618842DD
:1024200004D2316821F4E0610143316020788006F4
:102430000CD5E1695846DBF8002002F070029142A9
:1024400004D2026822F070020A43026000F06CF8C5
:102450000E492A682B68C2F3032203F00F038A5C3B
:10246000C95C02F01F0201F01F01D040084A20FAA7
:1024700001F111600749086007480068BDE8F05F96
:10248000FEF7F0BD0020005218440258727200900E
:1024900018000024140000240C00002430B500F0C3
:1024A00043F80B4A0B490C4B15681468C5F303221B
:1024B00004F00F048A5C095D02F01F0201F01F01A5
:1024C000D040064A20FA01F119601060084630BD7C
:1024D000184402587272009018000024140000245E
:1024E00000B5FFF7DBFF05490968054AC1F3021192
:1024F000515C01F01F01C84000BD00001C4402589F
:102500007272009000B5FFF7C9FF05490968054AD6
:10251000C1F30221515C01F01F01C84000BD000061
:102520001C44025872720090454970B545480968CC
:10253000434B103B11F0380208D00111082A03D098
:10254000102A0BD0182A0BD0084670BD19688906CE
:10255000FBD51968C1F3C101C84070BD3A4870BDD0
:102560003749374D18310C1D24350A68096826682B
:102570002D6802F0030406F00102C1F30511C5F352
:10258000CC0515FB02F200EE102AB8EE400AE9B3C2
:102590002F4ADFED2E0AB7EE001A6CB1DFED2D1ACF
:1025A000012C01D0022C43D002EE101A1068F8EE74
:1025B000422A81EEA22A1EE01C68A40611D51B68DF
:1025C00001EE901A1168C3F3C103F8EE612AD840F6
:1025D00001EE900AC1F30800F8EE611A81EEA22A1A
:1025E0000BE001EE901ADFED1C2A00BFF8EE611A35
:1025F000106882EEA12AC0F3080001EE900AF8EEFE
:10260000611A40EE201A31EE810A00E015E022EE58
:10261000000A1068C0F34620401C00EE900AF8EE55
:10262000600A80EE201ABCEEC10A10EE100A70BDDE
:1026300001EE901ADFED092AD8E7002070BD0000F6
:10264000104402580090D00340787D01000000390A
:10265000304402580024744A0024744C20BCBE4B01
:102660002DE9F05F04007DD0FF4F2078FE4D183734
:10267000DFF8F493103DC00748D0D9F8000039685E
:1026800000F03800102815D0182803D101F00300FD
:1026900002280FD06068B0F5803F12D010B1B0F5BD
:1026A000A02F18D0286820F480302860286820F4F3
:1026B000802009E02868800328D560680028D2D0EF
:1026C00024E0286840F480302860606888B1FEF714
:1026D0008DFC064609E0286840F480202860F0E779
:1026E000FEF784FC801B64286FD828688003F7D528
:1026F0000CE0FEF77BFC064605E000BFFEF776FC2B
:10270000801B6428F0D828688003F7D4207841F231
:102710000308D54E0C3E800769D5D9F8000039680A
:1027200010F038000ED0182801D188070AD0E068D0
:1027300090B3296821F0190101432960FEF756FC86
:10274000824631E02868400702D5E06800288AD038
:10275000E168286820F0190008432860FEF746FC6D
:10276000824607E0DFE000BFFEF740FCA0EB0A0076
:102770000228B9D828684007F6D500BFFEF730FC1C
:1027800040451BD82069402812D0316821F47C31A3
:1027900041EA003030602AE018E000BFFEF726FC76
:1027A000A0EB0A0002289FD828684007F6D5E5E785
:1027B000306820F47C3040F40030EBE7207C316856
:1027C00021F0FE4141EA0060E4E70DE1286820F0D5
:1027D00001002860FEF70AFC824605E0FEF706FCD1
:1027E000A0EB0A0002288DD828684007F6D420788C
:1027F000C0065DD5D9F80000DFF86CB2396800F08A
:102800003800ABF1040B082810D0182803D101F0D0
:10281000030001280AD0E0690028286838D040F079
:1028200080002860FEF7E2FB824623E02868C005AE
:1028300023D5E069802876D11FE0206A202821D0A6
:10284000316821F0F84141EA8060306030E000BF3B
:1028500094F82010DBF8002022F07C5242EA01615B
:10286000CBF8001024E000BFFEF7C0FBA0EB0A008D
:10287000022898D82868C005F6D5FEF7B1FB404578
:10288000E6D8DAE7306820F0F84040F08040DCE736
:1028900020F080002860FEF7A9FB064605E000BF97
:1028A000FEF7A4FB801B02289DD82868C005F7D43A
:1028B0002078000729D56C4861696430002980467A
:1028C000016811D041F001010160FEF78FFB06465F
:1028D00005E000BFFEF78AFB801B0228C9D8D8F8A4
:1028E00000008007F6D510E021F001010160FEF73D
:1028F0007DFB064605E000BFFEF778FB801B022843
:1029000072D8D8F800008007F6D42078800623D546
:10291000A0690028286810D040F480502860FEF795
:1029200065FB064605E036E1FEF760FB801B0228EA
:102930005AD828688004F7D50EE020F4805028602B
:10294000FEF754FB064604E0FEF750FB801B02280E
:102950004AD828688004F7D4207840074FD5DFF89C
:102960000C81D8F8001041F48071C8F80010FEF70F
:102970003DFB064605E000BFFEF738FB801B6428E0
:1029800032D8D8F80000C005F6D5374EA0686036BA
:1029900001280AD008B1052813D0306820F00100C2
:1029A0003060306820F0040002E0306840F0010040
:1029B0003060A06841F2883A90B1FEF717FB80467C
:1029C0000AE0306840F004003060EEE7FEF70EFBEE
:1029D000A0EB0801514507D830688007F6D50EE016
:1029E000FEF704FB804607E084E000BFFEF7FEFA36
:1029F000A0EB080151457DD830688007F6D4606AA5
:102A0000B0B3DFF86480D9F8001008F120084FF661
:102A1000F87B08F10409C1F3C2010329A8F1040AF3
:102A200069D00228286820F08070286003D0FEF763
:102A3000DDFA044684E0FEF7D9FA064605E000BF59
:102A4000FEF7D4FA801B022877D828688001F7D4D3
:102A5000E26A40F2F331386854F8283F884340EA8C
:102A600002101843386004E010440258004802582D
:102A7000B5E0217B434622894FF4FE0C208A4FF0BB
:102A8000FE474902267D521E401EA1F50071C2F389
:102A900008088AB2761E0CEA004042EA08020243A5
:102AA000504607EA06610A431A60DAF8002022F06D
:102AB0000102CAF80020D9F80020266A22EA0B0297
:102AC00042EAC602C9F80020DAF80010A26921F033
:102AD0000C011143CAF800100168E26921F00201FB
:102AE00011430160016841F480310160016841F4E3
:102AF000003101E021E027E00160016841F480211C
:102B00000160016841F001010160286840F08070B7
:102B10002860FEF76BFA044605E000BFFEF766FA90
:102B2000001B022809D828688001F7D557E000BFAC
:102B3000FEF75CFA001B022802D90320BDE8F09FD3
:102B400028688001F4D44AE039680128D8F80000E8
:102B500021D0A26A01F0030393421CD1E26AC1F3BF
:102B600005118A4217D1216BC0F30802491E8A421F
:102B700011D1616BC0F34622491E91420BD1A16B6A
:102B8000C0F30642491E914205D1E16BC0F30660D5
:102B9000491E814201D00120D0E7A16C4E46D9F8F0
:102BA0000000C0F3CC00814219D0DAF8000055468D
:102BB00020F00100CAF80000FEF718FA4FEA0007FB
:102BC000FEF714FAB842FBD0A26C306820EA0B0082
:102BD00040EAC2003060286840F001002860002010
:102BE000ACE7000070B504000D4603D094F82C004B
:102BF00010B107E0012070BD002084F82D002046B0
:102C000000F018F8022084F82C002068211DFDF740
:102C10003CFED4E900022946FDF788FE0448012164
:102C2000026842F00042026084F82C10002070BD5F
:102C300000400052FEF72AB810B5044690F82C0068
:102C4000022804D094F82C00012801D0012010BDE6
:102C5000022084F82C002068FDF74CFE012084F847
:102C60002C00002010BD000070B5044690F82C0028
:102C70000D46022804D0012803D0052801D00120E8
:102C800070BD022084F82C002068FDF73CFE286807
:102C9000022805D05FF0010084F82C00002070BDF0
:102CA0000520F9E7401EB0F1807F10B501D3012067
:102CB00010BD4FF0E02460610F21601701F088FA29
:102CC0000020A0610721216110BD30B590F884106B
:102CD000012918D0012280F884202421C0F888100E
:102CE0000022202401680B680D6823F0005325F0B2
:102CF00001050D60426601680B60C0F8884080F8ED
:102D00008420104630BD022030BD70B5044690F8D6
:102D1000840001281DD0012284F884202420C4F8D6
:102D2000880020680568026822F0010202602068BD
:102D3000826822F060620A438260204600F0BEFE94
:102D40002268202100201560C4F8881084F88400CF
:102D500070BD022070BD70B5044690F88400012853
:102D60001DD0012284F884202420C4F88800206823
:102D70000568026822F0010202602068826822F081
:102D800060420A438260204600F098FE22682021BB
:102D900000201560C4F8881084F8840070BD0220FB
:102DA00070BD10B5040003D0D4F8880010B107E05E
:102DB000012010BD002084F88400204600F026F891
:102DC0002420C4F888002068016821F00101016016
:102DD000204600F079FF0128EBD0A06A10B1204610
:102DE00000F08EFE2068416821F490414160206827
:102DF000816821F02A0181602068016841F00101A9
:102E000001602046BDE8104000F0DEBE10B5B6B04F
:102E10000446142130A8FDF7C8FAC0216846FDF722
:102E2000C4FA1949206888422BD100201E90022143
:102E30000446CDE900106846FEF72CFD08B1FDF709
:102E400022FD1248016841F400210160006800F48D
:102E5000002035900D480838016841F004010160F8
:102E6000006830AB022100F0040035904FF4406060
:102E7000082283E81300064830A9CDE93342FDF764
:102E80008FFF36B010BD0000004C0040E8440258EF
:102E9000000802582DE9F8430446D0F88800984607
:102EA00016460D46202802D00220BDE8F883A5B1C1
:102EB0009EB10021C4F890102120C4F88800183475
:102EC000FEF794F8814654F8100CA687E687202771
:102ED000183CB0F5805F02D003E00120E5E72069EF
:102EE00010B12E46002510E000260EE0802120467D
:102EF00001F0C0F8C0B9DEB116F8010B2168886294
:102F0000B4F85600401EA4F85600B4F856004B46DC
:102F10004FF00002CDF800800028E7D14FF04001CB
:102F2000204601F0A7F848B1C4F888700320BCE738
:102F300035F8020B2168C0F30800E0E7C4F8887098
:102F40000020B2E7FEE70000002010B502F0C2FC4E
:102F500001280AD002280AD003280AD004280AD15E
:102F600005A0BDE8104001F00FB907A0F9E70AA0DD
:102F7000F7E70DA0F5E710BD4B45595F32B0B4CF70
:102F8000C2C1CB0D0A0000004B45595F5550B0B48B
:102F9000CFC2C1CB0D0A00004B45595F30B0B4CF52
:102FA000C2C1CB0D0A0000004B45595F31B0B4CF10
:102FB000C2C1CB0D0A0000000148FEF79DB8000019
:102FC000280100242DE9FE4F81460068882493469D
:102FD0008D888C2204EBCB178A46C3689421BE46A9
:102FE000C459C3F30B432B4404F470441F040197EA
:102FF00002EBCB1240F80E4001EBCB13DAF8007075
:103000009C214FF0AC0C01EBCB1440F20771029104
:103010000CEBCB11D9F800C098250020CDF800C0EA
:10302000A02605EBCB15DCF80CC006EBCB16CCF3D9
:103030000B4C0CF1010C07EB0C08DDF800C0019FF4
:1030400048EA07084CF80E80D9F80070BAF80CC0AE
:10305000B846FF68C7F30A0767444FEA074E58F8B7
:10306000027007F4704C48F802C0D9F800C0DAF8D2
:103070000870DCF80C80C8F30A0808F10108B844AD
:1030800048EA0E084CF80280D9F80020D75827F0FB
:103090000707D750D9F80070DAF81020FA509AF8DC
:1030A00031209AF818304FEA022C9AF83220120494
:1030B00042EA0362D9F800301F5918519AF83030AB
:1030C00043EA0C031343D9F800201351D9F8002028
:1030D000535923F0FF035351D9F80020DAF8143084
:1030E0005351D9F800209359029CA3439351D9F826
:1030F0000030DAE9072422439A51D9F800205358C6
:103100005050D9F80020DAF824005050DAF81000B6
:10311000C8B301283AD004283AD0022838D003286E
:1031200036D0072834D00120D9F80030B02505EB7F
:10313000CB11B42284245D5802EBCB1205F0E025BC
:103140005D50DAE9003504EBCB14EB1ABAF82850DD
:1031500043434543D9F80000DB1D43EA0543435090
:10316000D9F8000081586FF30A018150D9F80000A6
:10317000DAF82C108150D9F80000015941F0010112
:103180000151BDE8FE8FFFE70420CDE70320CBE728
:103190000220C9E710B5114802220F4B002103603D
:1031A000C0E90112C160C0E91112C1640165416545
:1031B0008165C165FDF706FD08B1FDF764FB0748B1
:1031C0000121FDF70DFC08B1FDF75DFBBDE81040E6
:1031D000034904A000F0D8BF001000528C00002466
:1031E0002172009025730D0A000000002DE9F04FB8
:1031F0008BB01C2104A8FDF7D8F835484FF0000823
:10320000324A022420264FF0080B4FF0010A4FF0FB
:10321000400CC0E90028E201C0F808A0C0E903B6EC
:10322000C0F814C0D30015014FF0070956015946E4
:10323000C0E906284A4600F12009052789E8680008
:103240000494CDE90512CDE9087404A907920A9403
:10325000FFF7C8FC08B1FDF716FB102647464FF6EE
:10326000FF781B4855464246CDE900A6CDE902A7A6
:103270006946FFF7F9FC4FF4FA7001F0E3FD1448DA
:103280004246CDE90046CDE902576946FFF7ECFC1E
:10329000032103978DE842080D4842466946FFF72F
:1032A000E3FC4FF4087142460420CDE90006CDE965
:1032B000025107486946FFF7D7FC054840F24731FD
:1032C000FFF7BAFC0BB0BDE8F08F000040410052A0
:1032D000F40000242DE9F04387B014216846FDF77F
:1032E00064F84348016841F480710160016801F4A9
:1032F00080710591016841F002010160016801F0EF
:1033000002010591016841F480610160016801F4E6
:1033100080610591016841F004010160016801F0DC
:1033200004010591016841F010010160016801F09C
:1033300010010591016841F400710160016801F418
:1033400000710591016841F080010160016801F0A0
:1033500080010591016841F040010160016801F0C0
:1033600040010591016841F008010160016801F028
:1033700008010591016841F0200101600068002208
:103380001C4F202100F0200005903846FDF723FE59
:10339000DFF864804FF40056002231464046FDF7C6
:1033A0001AFEDFF8589000220C214846FDF713FE64
:1033B0000125032100242020CDE90241CDE90005AB
:1033C00069463846FDF7ECFC00966946CDE90154A4
:1033D00040460394FDF7E4FC0C200090CDE9015435
:1033E000694648460394FDF7DBFC07B0BDE8F0836F
:1033F000E04402580004025800080258001C025819
:10340000F0B593B014210DA8FCF7CFFF4148016837
:1034100041F400710160016801F4007112910168CA
:1034200041F48061016000680322002400F48060A0
:10343000129001214020CDE90F12CDE90D0436484C
:103440000DA9FDF7ADFC44200D9034480DA9FDF702
:10345000A7FC334947F21600888002F03DFF342173
:103460006846FCF7A2FF304813212E4B02259F220D
:1034700040F29F464FF41E7740F23F5C03602023EA
:1034800044604FF4217E84608561C460C0E90441DA
:1034900000F11C0181E8CC5080F8344080F83540C0
:1034A00080F83640FDF78CFE08B1FDF7ECF94FF4DB
:1034B000806004954FF4167107AF0523CE06CDE961
:1034C0000040CDE9024187E84900CDE90A01FF2229
:1034D0001548CDE905248DF8304000228DF83140A3
:1034E00069468DF83240FDF7DDFD08B1FDF7CBF9F7
:1034F000012002F079FA0D4801222021FDF76BFD31
:103500004FF6FF7002F04EFA09490AA000F03CFEA7
:1035100013B0F0BDE04402580024025800280258BD
:103520002803002400100050280100240004025841
:103530002F72009025730D0A0000000010B5194885
:103540000021174C0C224FF4E1330460C0E9013133
:10355000C160C0E904128161C1610162416281629E
:10356000FFF71FFC08B1FDF78EF90E480021FFF7A9
:10357000F2FB08B1FDF787F90A480021FFF7C5FB08
:1035800008B1FDF780F90748FFF79FFB08B1FDF789
:103590007AF9BDE81040044904A000F0F5BD000030
:1035A000004C0040D00100243C72009025730D0AAD
:1035B00000000000FEE700007CB50F4C00206168B1
:1035C00088474CF218650C260523CDE90065A289D1
:1035D0000021012002F048FDCDE90065228C052381
:1035E0000021202002F040FD00F00CF8BDE87C40F6
:1035F000024800F087BD00002C00002400040024D5
:10360000FEE700002DE9FC5F27494FF6FF704FF4FD
:10361000A5738211D1E900540D210090002002F021
:103620003FFB230C4FF00A0B1FFA85FA0193A6B259
:103630004FEA1549A6EB0A040025A3EB0907A4F1FC
:1036400001080DE005EB85014CF218631FFA88F2C2
:1036500009EB410189B2002002F0AAFA6D1CADB25B
:1036600097FBFBF0A842EDDA641C4CF218670025CA
:10367000E01704EB906409E00AEB8510019B82B22D
:10368000494680B202F0A8FA6D1CADB20097B5EBC6
:10369000A41FF1DD761E019BB2B24946B0B202F022
:1036A0009BFABDE8FC9F000008BA0090704700003C
:1036B0002DE9F047454D044689464FF0000A286839
:1036C000C04380070AD0414E283E306820F0806019
:1036D0003060FDF78BFC0746B04608E00120BDE8EE
:1036E000F08700BFFDF782FCC01B022867D8D8F81E
:1036F00000000001F6D4206829684FF4FE0721F489
:103700007C313E0241EA00302860207AA389B4F877
:1037100004C040022D4D2D495B1E227CACF1010CF2
:103720001035091DA0F5007080B2521ECCF3080CB4
:1037300007EA034340EA0C00184306EA026210431A
:1037400028600868626920F0C000104308600A68B9
:10375000A06922F0200202430A60281D0A6822F0B4
:1037600010020A6002684FF6F873E4699A4342EA6D
:10377000C40202600868B9F1000F40F010020A604C
:1037800011D00868B9F1010F11D040F400100860A1
:10379000D8F80000444640F08060C8F80000FDF70B
:1037A00025FC05460DE0086840F40020EFE740F4F2
:1037B0008010ECE7FDF71AFC401B022801D903201A
:1037C0008DE720680001F5D5504688E72844025867
:1037D0002DE9F047454D044689464FF0000A286818
:1037E000C04380070AD0414E283E306820F0805008
:1037F0003060FDF7FBFB0746B04608E00120BDE85E
:10380000F08700BFFDF7F2FBC01B022867D8D8F88D
:1038100000008000F6D4208829684FF4FE0721F0CC
:103820007C713E0241EA00502860207AA389B4F8F6
:1038300004C040022D4D2D495B1E227CACF1010CD1
:103840001835091DA0F5007080B2521ECCF3080C8B
:1038500007EA034340EA0C00184306EA02621043F9
:1038600028600868626920F44060104308600A68B4
:10387000A06922F4007202430A60281D0A6822F43B
:1038800080720A6002684FF6F873E4699A4342EA6C
:10389000C40202600868B9F1000F40F480720A6047
:1038A00011D00868B9F1010F11D040F080700860A4
:1038B000D8F80000444640F08050C8F80000FDF7FA
:1038C00095FB05460DE0086840F48000EFE740F402
:1038D0000000ECE7FDF78AFB401B022801D903201A
:1038E0008DE720688000F5D5504688E728440258C7
:1038F0007047FDF781BB000070B59CB04C21684655
:10390000FCF753FD202113A8FCF74FFD0220FDF723
:1039100041FE2E4900242E480A6822F001020A6066
:103920000A68026842F440420260026802F44042BF
:103930001B9202689204FCD5264A136843F00203E6
:103940001360126802F002021B92026842F44042C5
:10395000026002680A6842F001020A60096801F028
:1039600001011B9101688904FCD5022009900DF129
:10397000280C01260096C10301910522C0230426CC
:103980008CE80D00CDE90D0608250F90CDE9105407
:1039900068461294FEF764FE08B172B6FEE7402056
:1039A0001A903F210301CDE916500322CDE91803F7
:1039B00013AB13A883E816000421FEF741FC00288E
:1039C00001D072B6FEE71CB070BD00002C04005898
:1039D00018480258F44402582E48F0B52E4A01689F
:1039E00041F470010160106800F00F00072804D254
:1039F000106820F00F00C01D106028490020274CDF
:103A000010340B68264D43F001030B6020600B68F7
:103A10002B400B60136803F00F03072B04D91368C6
:103A200023F00F03DB1D13601C4C1E4A18341E4B81
:103A3000261D371D2060194C1C4D28343060261D72
:103A40003860371D23603B1D35601C1D3A60251D05
:103A50002E1D1860331D22602860326018600A68CD
:103A60000E4B134C22F4802260330A6018602068E9
:103A70006FF30F00B0F1005F03D20E490120C1F8CF
:103A8000080143F2D2000C49024BC206803B086099
:103A90001A60F0BD88ED00E000200052004402589A
:103AA0007FEDF6EA80020101000202020000FF0140
:103AB0000010005C008000510040005230B5416EA3
:103AC000B9B101680D4B03F108048A688968C2F333
:103AD0004262490F5D5C615C2D01B5FBF1F1A0F81C
:103AE0006A10995CA25C0901B1FBF2F1A0F86810C0
:103AF00030BD0121A0F86A10F8E700006272009062
:103B000090F82810C90706D00168C36A4A6822F4F1
:103B100000321A434A6090F82810890706D50168D8
:103B2000036B4A6822F480321A434A6090F82810E6
:103B3000490706D50168436B4A6822F480221A437C
:103B40004A6090F82810090706D50168836B4A6817
:103B500022F400421A434A6090F82810C90606D59C
:103B60000168C36B8A6822F480521A438A6090F815
:103B70002810890606D50168036C8A6822F4005271
:103B80001A438A6090F82810490611D50168436CE1
:103B90004A6822F480121A434A60416CB1F5801FD2
:103BA00006D10168836C4A6822F4C0021A434A6055
:103BB00090F82810090606D50168C26C486820F400
:103BC00000201043486070472DE9F8430025044663
:103BD000C0F89050FDF70AFA8046206820266FF062
:103BE0007E470068000713D5002243463104204673
:103BF000009700F03FFA58B1216851E8000F20F01B
:103C0000800041E80002002AF6D1C4F8886021E073
:103C100020680068400722D5002243464FF4800107
:103C20002046009700F026FAC8B1206850E8001F2F
:103C300021F4907140E80012002AF6D12068083083
:103C400050E8001F21F0010140E80012002AF5D1E0
:103C5000C4F88C60032084F88450BDE8F883C4F86D
:103C60008860C4F88C60E5662567002084F884507D
:103C7000F3E7000010B5026852E8001F21F49071CC
:103C800042E80013002BF6D10E4B0268083252E8CE
:103C9000001F194042E80014002CF6D1C16E012922
:103CA00008D1026852E8001F21F0100142E8001319
:103CB000002BF6D100212022C0F88C20C16641677C
:103CC00010BD0000FEFFFFEF2DE9F04304468068C1
:103CD000D84E87B0D84B2168D4E90427D4F81CC04B
:103CE00010430A68002547EA0C0738433240024374
:103CF0000A602068E268416821F440511143416044
:103D00002268A1699A4201D0206A01439768DFF8CE
:103D10002CC3CB4ECB4807EA0C070F4397602168B2
:103D2000676ACA6A22F00F023A43CA622268B24244
:103D30000ED1006800F03800182873D047DCB8B303
:103D4000082879D010286FD178E028287ED17BE030
:103D5000BD498A4209D1006800F00700062875D2E3
:103D6000DFE800F0546A6C6E7072B8498A4209D17B
:103D7000006800F00700062868D2DFE800F0475D21
:103D80005F616365B2498A4209D1006800F00700AB
:103D900006285BD2DFE800F03A5052545658AD493D
:103DA0008A420BD1006800F0070006284ED200E0DE
:103DB00010E0DFE800F02B4143454749A6498A421D
:103DC0000AD1006800F03800182839D0B7DD202863
:103DD000BBD13CE001203AE0A0498A4209D1006809
:103DE00000F00700062831D2DFE800F01026282A6C
:103DF0002C2E9B498A420BD1006800F00700062850
:103E000024D2DFE800F003191B1D1F2100201EE053
:103E10009A421BD18B48001D006800F0070006285D
:103E200014D202E00CE007E010E0DFE800F0030548
:103E300007090B0D02200AE0042008E0082006E034
:103E4000102004E0202002E0402000E0802085498E
:103E5000DFF814829A42854A4FF400434FEA211753
:103E60004FF000064ED110281AD006DC022809D0E7
:103E700004280BD008287CD10DE020283ED0402813
:103E800077D13DE0FDF7B0FB014610E06846FDF755
:103E9000BDFB01990BE003A8FDF75AFC049906E06D
:103EA0001068800605D51068C0F3C100C140002924
:103EB00070D0606A676838F8102007EB4703B1FBE1
:103EC000F2F0834255D8B0EB073F52D800230846A2
:103ED0001946FCF7FFF902467808130E120243EA6E
:103EE000012110183A4671410023FCF7F3F9604AAA
:103EF000A0F5407191423CD821688FE03946D8E75F
:103F00001946D6E7D4F81CC04FF6EF799C4546D148
:103F1000082819D005DC58B101280CD0042875D127
:103F20000DE0102815D0202835D040286ED134E07F
:103F3000FEF7D6FA01E0FEF7E5FA014610E0684622
:103F4000FDF764FB01990BE003A8FDF701FC049960
:103F500006E01068800604D51068C0F3C100C140B7
:103F6000C1B1636A606838F81330B1FBF3F14900FE
:103F700000E04BE001EB5001B1FBF0F0A0F11001CB
:103F8000494543D84FF6F0732168C0F34202184008
:103F9000104343E043E03946E3E71946E1E70828E8
:103FA00019D005DC58B101280CD004282ED10DE021
:103FB000102815D020282BD0402827D12AE0FEF742
:103FC0008FFA01E0FEF79EFA014610E06846FDF721
:103FD0001DFB01990BE003A8FDF7BAFB049906E06D
:103FE0001068800604D51068C0F3C100C140B1B1AB
:103FF000636A606838F81330B1FBF3F101EB5001EC
:10400000B1FBF0F0A0F11001494505D9012506E00A
:104010003946EDE71946EBE7216880B2C860012018
:10402000A4F86A00A4F8680028466667A66707B087
:10403000BDE8F083F369FFCF000C0058FFF4FF11D7
:104040000010014054440258004400400048004021
:10405000004C004000500040001401400078004037
:10406000007C00400090D0034A7200900044025847
:10407000FFFC0F002DE9F047994617460E4604460F
:10408000089D4FF000082FE0681C2DD0FCF7AEFF14
:10409000A0EB0900A84214D89DB120680168490727
:1040A00022D5C169C94309070DD4082505622046F8
:1040B000FFF7E0FDC4F89050012084F88480BDE84B
:1040C000F0870320FBE7C069C04300050CD42168DA
:1040D0004FF4006008622046FFF7CCFD2021C4F8B1
:1040E000901084F88480ECE72068C06936EA00000C
:1040F00004D00020B842C7D00020E0E70120F9E753
:10410000FEE700002DE9F0431D4C064600204FF667
:10411000FF791F2705462DED028B81B040F2FF3855
:10412000E18861809FED178A2080A0804FF4A572FE
:1041300036F815106D1CADB25143B1FBF9F000EE2D
:10414000100AB8EE400A38EE400ABCEEC00A10EE83
:10415000100A83B2E3800097A2886188208801F06A
:104160003BFDA0882080E288401C80B262804045F0
:10417000A080DBD301B0BDEC028BBDE8F083000072
:10418000800000240000A5430FB4054B10B503A91F
:10419000044A029800F0FEF810BC5DF814FB000021
:1041A000794E0090880000240FB4084B10B504A984
:1041B00002AA039800F0EEF8044602A9002000F0DD
:1041C0006CFC204610BC5DF814FB00009B4A00907C
:1041D000090700284FEA116104DB00F1E02080F8B4
:1041E0000014704700F00F0000F1E02080F8141D6B
:1041F000704702E008C8121F08C1002AFAD17047B0
:104200007047002001E001C1121F002AFBD1704756
:104210002DE9FF5F82B00021DDE90430020DDDF8F9
:1042200040B0034318D044F61050A2F2FF3242438C
:104230001514119801281FD0A5EB0B00401C5FEA54
:10424000000A4FF000064E4FDFF83891B046504656
:1042500015D5CAF1000413E0119801244AA30128DE
:1042600001D16FEA0B010298119AC0E90031C0E94F
:10427000024206B0BDE8F09FCBF10000DFE7044644
:104280000021404A491842EB0450CDE9001012E0E9
:10429000E00707D032463B4640464946FCF76BF9FB
:1042A0008046894632463B4610461946FCF763F97C
:1042B00006460F466410002CEAD1DDE90401DDE971
:1042C0000023BAF1000F06DAFCF755F942464B46D7
:1042D000FCF751F905E0FCF7C0F942464B46FCF704
:1042E000BCF904460E460022284BFCF73DFA03D8E1
:1042F0004FF0FF30014607E00022254B20463146B3
:10430000FCF792F8FCF718FA102409E0002C0ADBFD
:104310000A220023FBF7DEFF039B30321A55641E8E
:1043200050EA0102F2D1641C039AC4F1110314444F
:10433000119A012A03D0012208430DD10AE0084353
:1043400004D000204FF0110B119072E7A3EB0B0586
:104350006D1E0DE05B4504DD4FF0000205F1010527
:1043600004E003DA4FF00002A5F10105002AECD0C9
:1043700002981199C0E90231C0E9004579E70000CF
:10438000000014400000F03F300000000000F04347
:104390000000E03F2DE9FF4F95B09A46884606465B
:1043A0000025EEE1252877D100242746F94A01218E
:1043B000039400E0044316F8013F203B01FA03F0A8
:1043C0001042F7D130782A2811D06FF02F033078BF
:1043D000A0F13002092A16D8039A44F0020402EB35
:1043E000820203EB42021044761C0390EFE758F878
:1043F000042B0392002A03DA504244F40054039041
:1044000044F00204761C30782E2816D116F8010FDD
:1044100044F004042A280DD06FF02F023078A0F168
:104420003003092B09D807EB870302EB4303C718B6
:10443000761CF3E758F8047B761C30786C280FD094
:1044400006DC4C2817D068280DD06A2814D104E067
:10445000742810D07A280FD10DE044F400140AE03B
:1044600044F4801401E044F440147278824202D192
:1044700004F58014761C761C307866280BD013DC8B
:10448000582877D009DC002875D04528F6D0462872
:10449000F4D047281AD193E118E0632835D0642876
:1044A00079D0652812D18BE1702873D008DC672899
:1044B000F1D069286FD06E280DD06F2806D1ACE0FE
:1044C00073282CD0752874D0782853D05246179969
:1044D00090476D1C54E1C4F30250022809D0032810
:1044E0000DD0D8F8001004280DD00D6008F1040894
:1044F00046E1D8F80010EA17C1E90052F6E7D8F80B
:1045000000100D80F2E70D70F0E718F8041B8DF82D
:10451000001000208DF80100EB46012003E058F860
:1045200004BB4FF0FF3061074FF0000102D40DE0F3
:1045300009F101018946B9420FDA8145F8DB1BF820
:1045400009100029F4D108E009F1010189468142EE
:10455000FADB1BF809100029F6D103985346A0EBAB
:10456000090721463846179A00F080FA284400EBE4
:10457000090507E044E008E10DE01BF8010B524695
:1045800017999047B9F10109F7D2534621463846A9
:10459000179AF2E039E00A21C4F302524FF0000BFF
:1045A0000091022A06D058F8040BC117032A09D03B
:1045B0000AE023E008F1070020F00702F2E8020118
:1045C000904605E000B2C117042A01D140B2C117DC
:1045D000002906DA0A460021404261EB02012D2241
:1045E00002E0220504D52B228DF80420012203E0ED
:1045F000E20701D02022F7E7914657E00A2100E0C8
:1046000010214FF0000B00910BE010214FF0000B38
:1046100044F004040827009103E008204FF0000B49
:104620000090C4F30252022A05D058F8040B00216E
:10463000032A08D008E008F1070020F00702F2E89A
:104640000201904603E080B2042A00D1C0B24FF0CC
:10465000000922072AD53278702A07D0DDF800C079
:104660008CF0100C5CEA0B0C05D00EE040228DF8AB
:104670000420012208E050EA010306D030238DF81F
:1046800004308DF8052002229146009B83F0080338
:1046900053EA0B030AD150EA010201D1620705D5A2
:1046A00030228DF804204FF001097F1E3278582AFD
:1046B00004D039A20C920CAA02920BE03BA2F9E7BB
:1046C0005B46009AFBF706FE0C9B9B5C029A521E0F
:1046D0000292137050EA0102F2D1029804A9081A5A
:1046E00000F1200B600702D524F4803400E001279C
:1046F0005F4502DDA7EB0B0000E0002000EB0B01A3
:10470000009003984944401A0390E00306D45346AE
:104710002146179A039800F0A9F90544002706E0FE
:1047200001A85246C05D179990476D1C7F1C4F45EC
:10473000F6DBE0030CD553462146179A039800F0A8
:1047400095F9054404E030205246179990476D1CB6
:104750000099481E00900029F5DC08E002980299B3
:1047600052460078491C0291179990476D1CBBF185
:104770000001ABF1010BF1DC5BE100F065F90544F0
:10478000761C307800287FF40DAE19B02846BDE8BD
:10479000F08F0000092801003031323334353637CC
:1047A000383961626364656600000000303132337D
:1047B000343536373839414243444546000000001D
:1047C000600700D4062708F1070020F00700F0E892
:1047D0000223804603F0004C5FEA0C0001D097A052
:1047E00009E0200501D596A005E0E00701D095A0DD
:1047F00001E0AFF24C001390307823F000436528BD
:104800000CD006DC452809D046281DD047287FD18A
:104810003BE0662818D067287AD136E00021112FB6
:1048200001DB112000E0781CCDE9000104A90CA8EF
:10483000FFF7EEFCDDE90D010C9A4FF0000B07F1DC
:104840000109109200914EE04FF000400097CDE931
:10485000011004A90CA8FFF7DBFCDDE90D020C9B9D
:104860000F994FF0000B91461093009211B9791CEB
:1048700000EB0109B7EB090003D4C0F1FF3B07F1DE
:104880000109A9EB0700019042E0012F00DA01279E
:104890000021112F01DD112000E03846CDE9000193
:1048A00004A90CA8FFF7B4FCDDE90D010C9A0091F6
:1048B0004FF0000BB946109221070FD4009A4A45D9
:1048C00003DA914601E0A9F10109B9F1010F05DD13
:1048D000109AA9F10101515C3029F4D0B84202DAF2
:1048E00010F1040F03DA0121CDE9011010E00028D6
:1048F00003DC8344A9EB000102E0411C494500DDD3
:104900008946A0EB0B00401C01904FF00040029044
:10491000200705D40198484502DB4FF0FF30019095
:1049200000208DF84B0002980DF14B07B0F1004FBD
:1049300025D002200C902B200D90029800280CDA34
:10494000404202902D200D9007E00A210298FBF7CB
:1049500045FD3031029007F8011D0C99481E0C905E
:104960000029F2DC02980028EFD1791E0D9808701A
:10497000307800F0200040F0450007F8020D11A843
:10498000C01BC01D02901398007800B1012000EBFD
:104990000901019801EBE071029801440398401A63
:1049A000401E0390E00306D453462146179A03980D
:1049B00000F05CF805441398007818B15246179936
:1049C00090476D1CE00323D553462146179A039860
:1049D00000F04CF805441BE0BBF1000F07DB00982A
:1049E000584504DD1098179910F80B0001E017994D
:1049F00030205246904701980BF1010B401E05F103
:104A00000105019004D12E205246179990476D1C44
:104A1000B9F10001A9F10109DEDC05E017F8010B8D
:104A20005246179990476D1C0299481E0290002922
:104A3000F4DC53462146179A03989EE62D000000A9
:104A40002B000000200000002DE9F0410446002565
:104A50001E461746880404D405E039462020B04796
:104A60006D1C641EF9D52846BDE8F0812DE9F041A2
:104A7000044600251E469046C80301D5302700E0B5
:104A80002027880404D505E041463846B0476D1C10
:104A9000641EF9D52846BDE8F0810A68531C0B60F6
:104AA0001070704700F08EBD70B515460E46044676
:104AB00006E0611C20468CB200F006F806F8010BF7
:104AC000681E85B2F5D270BD10B5044600F030FE08
:104AD000210AA02000EB4100C0B200F0FDFD00F073
:104AE00069FEE0B200F0F8FD00F064FE00F020FE88
:104AF000A12000F0F1FD00F05DFE002000F0BEFD01
:104B0000044600F039FE204610BD70B515460E462D
:104B1000044606E0621C204616F8011B94B200F021
:104B200004F8681E85B2F5D270BD70B50D46044616
:104B300000F0FEFD210AA02000EB4100C0B200F011
:104B4000CBFD00F037FEE0B200F0C6FD00F032FE13
:104B5000284600F0C1FD00F02DFE00F00DFEBDE87E
:104B600070400A2000F068B970B5124C0022802114
:104B70002046FCF730FA022000F064F90E4D0122C5
:104B800040212846FCF727FA022000F05BF90022BA
:104B900028464021FCF71FFA022000F053F90122B9
:104BA00020468021FCF717FABDE87040022000F093
:104BB00049B9000000180258001C025830B587B0EF
:104BC00014216846FBF7F1FB1348016841F08001AE
:104BD0000160016801F080010591016841F0400128
:104BE0000160006801240225694600F0400005903C
:104BF0004020CDE900040948CDE90245FCF7D0F892
:104C0000802011218DE8330005486946FCF7C8F87B
:104C100000F0B0F807B030BDE0440258001C025864
:104C2000001802580D480122802110B5FCF7D3F975
:104C3000022000F007F90A4C012240212046FCF72F
:104C4000CAF9022000F0FEF8002220464021FCF7BD
:104C5000C2F9BDE81040022000F0F4B80018025874
:104C6000001C02582DE9F041DFF854800024154E55
:104C70000746254660060122040E30464021FCF717
:104C8000AAF9022000F0DEF880214046FCF79EF9E8
:104C900008B1641CE4B2304600224021FCF79BF9C5
:104CA000022000F0CFF86D1CEDB2082DE2D327B141
:104CB000FFF75AFF2046BDE8F081FFF7B3FFF9E7A1
:104CC00000180258001C02582DE9F041144F00242E
:104CD000144E0546280601D5012200E00022384680
:104CE0008021FCF778F9022000F0ACF80122304670
:104CF0004021FCF770F9022000F0A4F800223046B1
:104D00004021FCF768F96806641C050EE4B2082C23
:104D1000E0D33846BDE8F04101228021FCF75BB9C1
:104D200000180258001C025870B5104C0122802156
:104D30002046FCF750F90E4D012240212846FCF791
:104D40004AF9022000F07EF8002220468021FCF77C
:104D500042F9022000F076F8002228464021FCF7B4
:104D60003AF9BDE87040022000F06CB80018025813
:104D7000001C025810B50D4C002280212046FCF783
:104D80002AF9022000F05EF8094801224021FCF7D0
:104D900022F9022000F056F8012220468021FCF77B
:104DA0001AF9BDE81040022000F04CB80018025873
:104DB000001C02582DE9F041164E00240122254620
:104DC00080213046FCF707F9022000F03BF8124F33
:104DD000012240213846FCF7FEF8022000F032F8AC
:104DE00007E0641CE4B2FA2C03D9FFF7C3FF0125E6
:104DF00005E080213046FCF7E9F80028F1D10022D7
:104E000038464021FCF7E7F8022000F01BF828465E
:104E1000BDE8F08100180258001C025802490860E1
:104E200003A00249FFF7B0B91C0000248272009071
:104E300025730D0A000000004FF47A71484300F01A
:104E400001B800000B49002270B54FF0E02409685A
:104E500065694843A369A1699942FCD002D2A3EBDA
:104E6000010302E0A5EB010633441A440B468242DB
:104E7000F1D370BD1C00002438B5012204464FF662
:104E8000FF7369468DF800000248FEF703F82046DC
:104E900038BD0000D00100242DE9F04188B0142174
:104EA00001A8FBF782FA3B48016841F48071016078
:104EB000016801F480710691016841F08001016090
:104EC000006801240227DFF8D08000F080000690FF
:104ED0004FF480764046CDE90164CDE9034701A94E
:104EE000FBF75EFF0025802001A9CDE901052B48D5
:104EF000CDE90347FBF754FFFFF760FE0022314680
:104F00004046FCF768F81420FFF796FF012231466F
:104F10004046FCF760F83220FFF78EFF0122694619
:104F200000208DF8005000F00BF901226946A42002
:104F30008DF8005000F004F91620694601228DF822
:104F40000000802000F0FCF80C20694601228DF85A
:104F50000000882000F0F4F802226946A12000F049
:104F60001FF89DF80000302801D028B10BE09DF813
:104F7000010003280BD006E09DF80100012806D0AF
:104F8000022804D018B1012008B0BDE8F08100204B
:104F9000FAE70000E044025800200258001C0258C2
:104FA0002DE9F04115460F460446FFF7BDFE70207F
:104FB000FFF78AFEFFF7FEFEE0B2FFF785FEFFF780
:104FC000F9FEFFF7B1FE7120FFF77EFEFFF7F2FE5C
:104FD0006E1E002409E0B44201D0012000E0002050
:104FE000FFF740FE611C3855CCB2AC42F3D3BDE8AC
:104FF000F041FFF7BFBE00002DE9F14F4C4E0024F9
:105000004FF00A0ADFF82C8182B04FF6FF79307832
:10501000401CC0B23070B0FBFAF20AFB120109B1B9
:105020000A2869D20122022002A9FFF7B9FF9DF8E0
:105030000800010760D000F00F0106295CD209FAD0
:1050400001F0C043454640F44040A8F83400042035
:10505000FFF7F2FE00244FF0010B2746A98E0BFA52
:1050600004F001423CD034480422694630F8140070
:10507000FFF796FF95F844009DF80110C0079DF8D2
:10508000000010D000F00F0205EB440001EB0221FC
:1050900001849DF802209DF8031002F00F0201EB3D
:1050A0000221818112E0254A138800F00F0205EBEE
:1050B000440001EB0221591A81819DF802209DF8DC
:1050C000031002F00F0201EB022101849DF80000A1
:1050D0000821B1EB101F03D005EB44000784878142
:1050E000641CE4B2052CB9D3A889012418B9288C12
:1050F00008B98DF8087037709DF80800C0060ED109
:10510000B8F83400010402D520F4004005E0A8F806
:105110000C9000F46040A8F82090A8F83400307893
:10512000F02801D986F800A02046BDE8FE8F0000D7
:10513000240000242C000024D6B900902803002469
:105140002DE9F041002516460F460446FFF7ECFD19
:105150007020FFF7B9FDFFF72DFEE0B2FFF7B4FDB9
:10516000FFF728FE002408E0385DFFF7ADFDFFF7EC
:1051700021FE050003D1641CE4B2B442F4D3FFF76E
:10518000F9FD2846BDE8F0812DE9F04389B01421EE
:105190006846FBF70AF94248016841F480710160F2
:1051A000016801F480710791016841F0800101609C
:1051B000006802250126DFF8EC9000F080000790DF
:1051C000EF016946CDE90076CDE902654846FBF777
:1051D000E7FD00244FF08008CDF800806946039574
:1051E000CDE90146304E3046FBF7DAFDFFF7E6FC2D
:1051F000002239464846FBF7EEFE0A20FFF71CFE68
:10520000012239464846FBF7E6FE0A20FFF714FE66
:10521000CDE90084CDE9024569463046FBF7C0FD83
:105220006420FFF709FE042248F2401005A900F0AF
:105230004DF81EA18DF8184005A8FBF7C1F890B1F4
:105240001BA105A8FBF7BCF868B11BA105A8FBF7DB
:10525000B7F840B11AA105A8FBF7B2F818B10120C0
:1052600009B0BDE8F08316A105A8FBF7A9F810B9AD
:1052700015490A20087001228DF8145048F24005A3
:1052800005A9284600F04EF90A20FFF7D5FD0122B6
:10529000284605A98DF8144000F044F90020DFE706
:1052A000E044025800200258001C025839313100F5
:1052B000393134370000000031313538000000004A
:1052C0003932373100000000250000242DE9F0417B
:1052D00015460F460446FFF727FD2820FFF7F4FC8C
:1052E000FFF768FD200AFFF7EFFCFFF763FDE0B270
:1052F000FFF7EAFCFFF75EFDFFF716FD2920FFF739
:10530000E3FCFFF757FD6E1E002409E0B44201D014
:10531000012000E00020FFF7A5FC611C3855CCB24D
:10532000AC42F3D3BDE8F041FFF724BD2DE9F14FC6
:10533000784D00244FF00A0ADFF8DC8182B04FF686
:10534000FF796878401CC0B26870B0FBFAF20AFBC3
:10535000120109B10A287CD248F24E1701223846C0
:1053600002A9FFF7B3FF9DF80800002601060BD540
:10537000297800F00F00884206D80122384601A99A
:105380008DF8046000F0CEF89DF80800010760D0A9
:105390002A7800F00F0393425BD80024B8F83470E9
:1053A00009FA03F1C943DFF874B108EB420241F492
:1053B0004041A8F83410B8F80C105181B8F820001A
:1053C000D0835CE00120B8F83410A040014254D0F2
:1053D00053480422694630F81400FFF777FFBBF802
:1053E0000410A1F5AA42103A1ED0A1F51842063ABF
:1053F0001AD0A1F5EE42963A16D098F84420D2077A
:1054000028D000BF9DF801209DF8000000EB02228B
:1054100008EB440082819DF802109DF8032000BF34
:1054200001EB0221018428E098F84420D207E9D05A
:105430009DF803C008EB44009DF80230BBF8002043
:1054400003EB0C23D11A81819DF800109DF80120F7
:10545000E6E730E09DF8033008EB44019DF80220B8
:10546000BBF8000002EB0322801A88819DF801201E
:105470009DF8000000EB02200884641CE4B2287848
:1054800084429FD3B8F80C200124BBF8003040467A
:105490009A4204D8028CBBF802108A420AD99DF8BD
:1054A000081001F00F0101290CD9C1898181418CBB
:1054B000A8F820106E709DF8080000F08F0080287A
:1054C0000DD01EE02978802200EB41014B898381B9
:1054D000C98B01848DF80820A8F83470EBE7B8F880
:1054E00034204046110404D522F40041A8F83410B9
:1054F00007E0A0F80C9002F46042A0F82090A8F811
:1055000034206878F02801D985F801A02046BDE84C
:10551000FE8F0000250000242C0000242803002416
:10552000E0B900902DE9F041002516460F460446EB
:10553000FFF7FAFB2820FFF7C7FBFFF73BFC200A29
:10554000FFF7C2FBFFF736FCE0B2FFF7BDFBFFF74A
:1055500031FC002408E0385DFFF7B6FBFFF72AFCBA
:10556000050003D1641CE4B2B442F4D3FFF702FC9B
:105570002846BDE8F081000010B5114C0022202122
:105580002046FBF728FD0220FFF75CFC01222046A5
:105590001021FBF720FD0220FFF754FC00222046DB
:1055A0001021FBF718FD0220FFF74CFC01222046DA
:1055B0002021FBF710FDBDE810400220FFF742BCA0
:1055C000001C025870B586B014216846FAF7EDFE4B
:1055D0001648016841F080010160016801F0800116
:1055E0000591016841F080010160006801240225F5
:1055F0000F4E00F08000059010206946CDE90004B0
:10560000CDE902453046FBF7CBFB202011218DE888
:10561000330069463046FBF7C3FB00F0ADF805499F
:1056200005A0FEF7B1FD06B070BD0000E0440258D1
:10563000001C0258F4B9009025730D0A0000000008
:1056400010B50D4C012220212046FBF7C4FC02209E
:10565000FFF7F8FB012220461021FBF7BCFC0220DB
:10566000FFF7F0FB002220461021FBF7B4FCBDE859
:1056700010400220FFF7E6BB001C02582DE9F04164
:10568000144E00240746254660060122040E3046CB
:105690001021FBF7A0FC0220FFF7D4FB20213046AD
:1056A000FBF794FC08B1641CE4B2304600221021E0
:1056B000FBF791FC0220FFF7C5FB6D1CEDB2082D36
:1056C000E2D327B1FFF758FF2046BDE8F081FFF78E
:1056D000B7FFF9E7001C025870B5144E00240546C8
:1056E000280601D5012200E0002230462021FBF7E8
:1056F00072FC0220FFF7A6FB012230461021FBF7C7
:105700006AFC0220FFF79EFB002230461021FBF7C7
:1057100062FC6806641C050EE4B2082CE0D3304637
:10572000BDE8704001222021FBF755BC001C025847
:1057300010B5104C012220212046FBF74CFC012221
:1057400020461021FBF747FC0220FFF77BFB0022DD
:1057500020462021FBF73FFC0220FFF773FB0022CD
:1057600020461021FBF737FCBDE810400220FFF770
:1057700069BB0000001C025810B50D4C002220210E
:105780002046FBF728FC0220FFF75CFB01222046A5
:105790001021FBF720FC0220FFF754FB01222046DA
:1057A0002021FBF718FCBDE810400220FFF74ABBA0
:1057B000001C025870B5164E0024012225462021F7
:1057C0003046FBF708FC0220FFF73CFB0122304685
:1057D0001021FBF700FC0220FFF734FB07E0641CFC
:1057E000E4B2FA2C03D9FFF7C7FF012505E0202119
:1057F0003046FBF7EBFB0028F1D1002230461021A8
:10580000FBF7E9FB0220FFF71DFB284670BD0000F7
:10581000001C025870B586B014216846FAF7C5FD21
:105820002548016841F001010160016801F00101B2
:105830000591016841F080010160016801F080017B
:105840000591016841F080010160016801F080016B
:105850000591016841F00401016000680125002400
:10586000694600F00400059002200095CDE9014052
:1058700012480394FBF794FA0820114E8DE831008A
:10588000694630460394FBF78BFA042069468DE89D
:10589000310030460394FBF783FA680369468DE8CC
:1058A000310008480394FBF77BFA074907A0FEF78D
:1058B0006BFC06B070BD0000E044025800000258C6
:1058C000001C025800080258FDB9009025730D0A0B
:1058D000000000002DE9F0472E4D4FF40059DFF88D
:1058E000B8804FF00107DFF8B4A04FF000042C4E51
:1058F00008B12F7002E02878012813D10121404619
:10590000FBF764FBA0B908213046FBF75FFB78B1D9
:1059100004213046FBF75AFB50B149465046FBF78D
:1059200055FB28B101214046FBF750FBF0B12DE0BB
:105930000A20FFF781FA0020494628705046FBF7FD
:1059400045FB00B9042430460421FBF73FFB00B9B6
:10595000032430460821FBF739FB00B902244046F6
:105960000121FBF733FB88B101240FE00821304609
:10597000FBF72CFB50B104213046FBF727FB28B185
:1059800049465046FBF722FB00B12F702046BDE888
:10599000F08700007400002400000258000802583C
:1059A000001C025870B505460C48006820B1284616
:1059B000BDE8704000F0E8BB094800210488408839
:1059C0004443084600F068FA00F0CCFB054800218B
:1059D00001E00580491CA142FBD370BDE003002417
:1059E00028030024000008602DE9F05F3D4C3E4D87
:1059F000A071296839B100F0E9FBE88A2080288B82
:105A00006080BDE8F09F002836484FF430594FF0D1
:105A1000F00C4FF4285A45F210584FF42C5E41F622
:105A2000631B80884FF448734FF4A0724FF02C052D
:105A30004FF4F0714FF02B064FF02A070BD0228065
:105A40004045A4F802C02DD1A4F80890A4F80AA0FB
:105A5000A4F80CE03CE0A4F800C04045628006D108
:105A6000A4F80890A4F80AA0A4F80CE004E05845B3
:105A7000258104D16681A7812180638001E067814F
:105A8000A681A0F5A645103D03D0A0F5EE45963DB4
:105A900001D122806180A0F51842063A1DD12180F3
:105AA00063801AE0584510D0A0F5184CBCF1060CE4
:105AB0000BD025816781A681A0F5A643103B0AD0B3
:105AC000A0F5EE43963B06D007E025816781A681CD
:105AD00023806180F0E7218062800020BDE8F05FD4
