:020000040800F2
:10000000F8040020B102000863280008092800084D
:1000100061280008BD030008A9370008000000009F
:100020000000000000000000000000009D2F0008FC
:10003000BF03000800000000652800089F2F00088B
:10004000CB020008CB020008CB020008CB0200085C
:10005000CB020008CB020008CB020008CB0200084C
:10006000CB020008CB020008CB020008CB0200083C
:10007000CB020008CB020008CB020008CB0200082C
:10008000CB020008CB020008CB020008CB0200081C
:10009000CB020008CB020008CB020008CB0200080C
:1000A000CB020008CB020008CB020008CB020008FC
:1000B000CB020008CB020008CB020008CB020008EC
:1000C000CB020008CB020008CB020008CB020008DC
:1000D000CB020008CB020008CB020008CB020008CC
:1000E000CB020008CB02000800000000CB02000891
:1000F000CB020008CB020008CB020008CB020008AC
:10010000CB020008CB020008CB020008CB0200089B
:10011000CB020008CB020008CB020008CB0200088B
:10012000CB020008CB020008CB020008CB0200087B
:10013000CB020008CB020008CB020008CB0200086B
:1001400000000000000000000000000000000000AF
:10015000CB020008CB020008CB020008CB0200084B
:10016000CB020008CB020008CB020008CB0200083B
:10017000CB020008CB020008CB020008CB0200082B
:10018000CB020008CB020008CB020008CB0200081B
:10019000CB020008CB020008CB020008CB0200080B
:1001A000CB020008CB020008CB020008CB020008FB
:1001B000CB020008CB020008CB020008CB020008EB
:1001C000CB020008CB020008CB020008CB020008DB
:1001D000CB020008CB020008CB020008CB020008CB
:1001E000CB020008CB020008CB020008CB020008BB
:1001F000CB020008CB020008CB020008CB020008AB
:10020000CB020008CB020008CB020008CB0200089A
:10021000CB020008CB020008CB020008CB0200088A
:10022000CB020008CB020008CB020008000000004F
:10023000CB020008CB02000800000000CB0200083F
:10024000CB020008CB020008CB020008CB0200085A
:10025000CB020008CB020008CB020008CB0200084A
:10026000CB020008CB020008CB020008CB0200083A
:10027000CB020008CB020008CB02000800000000FF
:10028000CB020008CB020008CB02000800000000EF
:1002900000000000CB020008DFF810D000F07CF86E
:1002A00000480047C53A0008AFF30080F80400207A
:1002B0000648804706480047FEE7FEE7FEE7FEE700
:1002C000FEE7FEE7FEE7FEE7FEE7FEE77130000827
:1002D000990200082DE9F05F0546002092469B46F2
:1002E00088460646814640241BE02846414647464C
:1002F000224600F041F853465A46C01A914110D3A5
:1003000011461846224600F028F82D1A67EB01081E
:100310004F4622460120002100F01FF817EB00098C
:100320004E41201EA4F10104DFDC484631462A4636
:100330004346BDE8F09FD2B201E000F8012B491E10
:10034000FBD270470022F6E710B513460A46044672
:100350001946FFF7F0FF204610BD202A04DB203AA3
:1003600000FA02F1002070479140C2F1200320FA08
:1003700003F3194390407047202A04DB203A21FA06
:1003800002F00021704721FA02F3D040C2F12002AE
:100390009140084319467047064C074D06E0E06857
:1003A00040F0010394E8070098471034AC42F6D3BC
:1003B000FFF776FF843C0008A43C0008FEE7704786
:1003C0000B680022DFF824C2002B08BF70472DE91C
:1003D000F84FDFF81CE2012703244FF00F0800BF9D
:1003E0000B6807FA02F6334000F0F8800D7905F04B
:1003F0000305012D18BF022D1AD1D0F808904FEA3D
:100400004205D1F80CB004FA05FA29EA0A090BFAF8
:1004100005F545EA09058560456891F8049025EAE7
:100420000605C9F3001909FA02F646EA0505456012
:100430004D6834EA05050BD0C6685500D1F808A010
:1004400004FA05F926EA09060AFA05F53543C560F6
:100450000D7905F00305022D12D1D508D1F810A0B1
:100460004FEA427900EB85052E6A4FEAD96908FA0E
:1004700009FB0AFA09F926EA0B0649EA06062E6282
:1004800091F804900668550009F0030904FA05FA8A
:1004900009FA05F526EA0A06354305604D6815F4A4
:1004A000403F7DD0DEF8005045F00205CEF8005008
:1004B000DEF8005022F0030606F1B04605F0020512
:1004C00000959507D6F808942D0FA0F1B04B08FAC7
:1004D00005FABBF5003B29EA0A0908BF4FF0000AFC
:1004E00048D0A0F1B04ABAF5013A08BF4FF0010A6E
:1004F00040D0A0F1B04ABAF5023A08BF4FF0020A64
:1005000038D0A0F1B04ABAF5033A08BF4FF0030A59
:1005100030D0A0F1B04ABAF5043A08BF4FF0040A4F
:1005200028D0A0F1B04ABAF5053A08BF4FF0050A45
:1005300020D0A0F1B04ABAF5063A08BF4FF0060A3B
:1005400018D0A0F1B04ABAF5073A08BF4FF0070A31
:1005500010D0A0F1B04ABAF5083A08BF4FF0080A27
:1005600008D0A0F1B04ABAF5093A0CBF4FF0090A19
:100570004FF00A0A0AFA05FA4FF0B0454AEA0909AB
:10058000C6F80894D1F804902E6819F4801F26EA62
:10059000030618BF1E432E60D1F804906E6800E079
:1005A0001CE019F4001F26EA030618BF1E436E6004
:1005B000DCF804504E6825EA030516F4003F18BF26
:1005C0001D43CCF80450DCF800504E6825EA0305C2
:1005D00016F4803F18BF1D43CCF800500B68521C26
:1005E000D3407FF4FDAEBDE8F88F000080000058D6
:1005F000F4440258002A08BF0904816170470000D2
:1006000001480068000C70470010005C01488068D9
:1006100070470000040000200248816802781144FD
:100620008160704704000020032010B500F088F8B6
:1006300001F062FB0F4A104913681268C3F30323E9
:1006400002F00F02CB5C895C03F01F0201F01F0176
:10065000D0400A4A20FA01F11160094908600F20D0
:1006600000F010F800281CBF012010BD00F02AF88F
:10067000002010BD18440258743C000814000020EB
:100680001000002070B50D4D04462878A0B14FF43D
:100690007A71B1FBF0F00A490968B1FBF0F001F0A2
:1006A00009FF48B9102C07D200222146501E00F045
:1006B00017F800206C6070BD012070BD04000020A0
:1006C00010000020054881B0016841F0020101607E
:1006D000006800F00200009001B07047F444025836
:1006E000164B30B41B68C3F30223C3F1070CBCF1F3
:1006F000040F88BF4FF0040C1C1D072C34BF0023CF
:10070000DB1E012404FA0CFC04FA03F5ACF101042D
:100710002140A5F1010C99400CEA02021143002886
:100720004FEA0111B8BF00F00F0000F1E020ACBFAC
:1007300080F8001480F8141D30BC70470CED00E008
:10074000074900F007004FF6FF030A681A4042EA23
:10075000002040F0FD7040F08060086070470000AD
:100760000CED00E014490A6812F0040F07D1096883
:1007700001F00701814214BF01200020704770B5CD
:100780000A6822F0070210430860FFF73FFF0B4D95
:100790000446286810F4005F0CD100BFFFF736FF55
:1007A000001BB0F57A7F01D9012070BD286810F4D4
:1007B000005FF3D0002070BD0C4802580448025876
:1007C0002DE9F84F1E46154689460446FFF71EFFE1
:1007D000824694F84000012804BF0220BDE8F88F4B
:1007E00001274FF0000884F8407094F84100012878
:1007F00018BF022004D000BF84F84080BDE8F88F05
:100800004220C4F8448084F841000022202153464D
:100810002046009602F052FA0028EDD1216828689F
:1008200088622168686848622168A868C862206890
:100830002969026822F4400242F4800211430160F7
:10084000E8684FF000624946C9F82800204602F0E7
:100850000AF80122534608212046009602F02EFA9B
:100860000028C9D122680821D16084F84170C3E70B
:100870002DE9F84F16468A460446FFF7C7FE834621
:1008800094F84000012804BF0220BDE8F88F01273A
:100890004FF0000884F8407094F84100012818BF18
:1008A000022504D084F840802846BDE8F88F4FF038
:1008B0000209C4F8448084F84190002220215B465C
:1008C0002046009602F0FAF90500EBD100225146CD
:1008D000204601F0C8FFDAF82400002818BF84F889
:1008E0004170DFD101225B4602212046009602F0D2
:1008F000E5F90500D6D12068C0F80C9084F8417065
:10090000D0E7002804BF0120704710B504460068F6
:10091000016821F001010160204600F0A8F80020E4
:10092000606484F8410010BD2DE9F8430446FFF7E8
:100930006DFE002C054604BF0120BDE8F88394F845
:10094000410028B9204600F093F841F28830A064B5
:1009500020686FF0FF02A168036802EB012123F415
:10096000706211430160A06C002220212B46009090
:10097000204602F0A3F9002818BFBDE8F883D4E9A7
:10098000073521682679E2680F6845EA0665134352
:10099000DFF848C01D4327F0D0060022012326F0CF
:1009A0007F4635430D602168D4E90556278AD1F882
:1009B0000480354308EA0C0C4CEA074C45EA0C0C61
:1009C000C1F804C02168D1F800C04CF0010CC1F896
:1009D00000C0626484F84130BDE8F883FEF8E0FFAF
:1009E0002DE9F843154688460446FFF70FFE94F8B4
:1009F0004010012904BF0220BDE8F883012100272F
:100A000084F8401094F84110012918BF022604D040
:100A100084F840703046BDE8F883A16C8222676498
:100A200084F841200022034620460091202102F054
:100A300045F90600ECD120686968026822F00802D6
:100A400011430160686808280AD1226810202968CB
:100A500011632168C8602068016841F48011016059
:100A60004FF040624146204601F0FDFED0E770475E
:100A7000F0B587B00021009101910291039104919A
:100A80000068A0F1A442B2F5A0421CBF07B0F0BDBF
:100A90003A48016841F480410160006800F48040F8
:100AA00005903748016841F480410160016821F4F4
:100AB000804101603348016841F002010160016832
:100AC00001F002010591016841F002010160016835
:100AD00001F002010591016841F020010160016807
:100AE00001F020010591016841F0200101600168D9
:100AF00001F020010591016841F0200101600168C9
:100B000001F020010591016841F0200101600068B9
:100B1000022109241C4F00F0200005900420CDE99B
:100B2000000103226946CDE903243846FFF748FC5B
:100B3000402669460A25384600960495FFF740FC92
:100B4000124FB0006946049500903846FFF738FC14
:100B5000F0006946049500903846FFF731FC80208C
:100B60006946049400903846FFF72AFC69463846E7
:100B700000960494FFF724FC07B0F0BDD44402585B
:100B80007C440258E0440258000402580014025801
:100B90002DE9F84F15468A460446FFF737FD814692
:100BA0002068816994F8402000F12006012A04BFE2
:100BB0000220BDE8F88F01274FF0000884F840704C
:100BC00094F84120012A18BF022003D084F8408005
:100BD000BDE8F88FBAF1000FC4F8448036D0222265
:100BE00084F841200269521CA2630269521C6263AC
:100BF000C4F830A0426922F0406242F08062426153
:100C000020688161A06B98B101224B4606212046E5
:100C1000009502F053F8B0B93078216B0870206B62
:100C2000401C2063A06B401EA063A06B0028EBD18A
:100C300001224B4602212046009502F03FF810B9F0
:100C400022680221D16084F84170BFE7616C012005
:100C500041F008016164B9E710B500F0CDFF054926
:100C60000968054AC1F30211515C01F01F01C84037
:100C700010BD000020440258743C000861494DF842
:100C8000044DDFF884C10B1D0A6809681C68DCF894
:100C900000C002F00303C1F30531C4F30012CCF32A
:100CA000CC0C00291CFB02F200EE102AF8EE400AE0
:100CB0007DD09FED561A564AB7EE000ACBB1DFED54
:100CC000551A012B01D0022B4ED002EE101A1168DA
:100CD000F8EE422AC1F3080181EEA22A01EE901A31
:100CE000F8EE611A40EE811A71EE800A62EE200A77
:100CF0004FE0494BD3F800C01CF0200F1ED0DFF8A6
:100D00001CC11B6801EE901AC3F3C1011368F8EE11
:100D1000612A2CFA01F101EE901AC3F30801F8EEF2
:100D2000611A81EEA22A01EE901AF8EE611A40EEE5
:100D3000811A71EE800A62EE200A2AE001EE901A12
:100D40001168DFED372AF8EE611AC1F3080182EE6F
:100D5000A12A01EE901AF8EE611A40EE811A71EEA6
:100D6000800A62EE200A14E001EE901A1168DFEDAD
:100D70002D2AF8EE611AC1F3080182EEA12A01EED4
:100D8000901AF8EE611A40EE811A71EE800A62EE56
:100D9000200A1168C1F3462101EE101AB8EE411A7B
:100DA00031EE001AC0EE811ABCEEE11A00E022E03A
:100DB00080ED001A1168C1F3064101EE101AB8EE79
:100DC000411A31EE001AC0EE811ABCEEE11A80ED34
:100DD000011A1168C1F3066101EE101AB8EE411A4A
:100DE00031EE000A80EE801ABCEEC10A80ED020AE4
:100DF0005DF8044B704700210160416081605DF83F
:100E0000044B7047284402583C4402580000003903
:100E1000384402580024744A004402580090D00319
:100E20000024744C20BCBE4B61494DF8044DDFF8E2
:100E300084C10B1D0A6809681C68DCF800C002F058
:100E40000303C1F30551C4F30022CCF3CC0C0029F9
:100E50001CFB02F200EE102AF8EE400A7DD09FED56
:100E6000561A564AB7EE000ACBB1DFED551A012BE0
:100E700001D0022B4ED002EE101A1168F8EE422A71
:100E8000C1F3080181EEA22A01EE901AF8EE611A70
:100E900040EE811A71EE800A62EE200A4FE0494B63
:100EA000D3F800C01CF0200F1ED0DFF81CC11B6857
:100EB00001EE901AC3F3C1011368F8EE612A2CFA0F
:100EC00001F101EE901AC3F30801F8EE611A81EE08
:100ED000A22A01EE901AF8EE611A40EE811A71EE24
:100EE000800A62EE200A2AE001EE901A1168DFED16
:100EF000372AF8EE611AC1F3080182EEA12A01EE49
:100F0000901AF8EE611A40EE811A71EE800A62EED4
:100F1000200A14E001EE901A1168DFED2D2AF8EE98
:100F2000611AC1F3080182EEA12A01EE901AF8EECF
:100F3000611A40EE811A71EE800A62EE200A116891
:100F4000C1F3462101EE101AB8EE411A31EE001A33
:100F5000C0EE811ABCEEE11A00E022E080ED001A3A
:100F60001168C1F3064101EE101AB8EE411A31EED4
:100F7000001AC0EE811ABCEEE11A80ED011A116868
:100F8000C1F3066101EE101AB8EE411A31EE000A03
:100F900080EE801ABCEEC10A80ED020A5DF8044BB7
:100FA000704700210160416081605DF8044B70472B
:100FB0002844025844440258000000394044025872
:100FC0000024744A004402580090D0030024744C5A
:100FD00020BCBE4B2DE9F05F0025044600682E467C
:100FE000FD4FDFF8F88310F0006F1FD0606E58B12E
:100FF000B0F5801F0DD0B0F5001F0FD0B0F5401F29
:1010000018BF01251ED010E0386840F40030386069
:1010100018E00221201D01F07DFE04E0022104F110
:10102000240001F019FF05000CD02E46208810F492
:10103000807F24D0606D05281FD2DFE800F00C11FE
:10104000161C1C00606ED8F8001021F440110843F3
:10105000C8F80000EAE7386840F4003038600AE079
:101060000021201D01F056FE04E0002104F12400BF
:1010700001F0F2FE05467DB100E001252E462088F4
:1010800010F4007F2BD0A06D802820D00DDC90B113
:10109000402815D0012521E0606DD8F8001021F01E
:1010A00007010843C8F80000E9E7C02818BFB0F5F9
:1010B000807FEFD111E0386840F4003038600CE0F8
:1010C00004F104004FF0000101F024FE04E00021CF
:1010D00004F1240001F0C0FE054695B12E4620889B
:1010E000DFF8FC9210F4806F2FD0D4F8A400B0F594
:1010F000800F22D00EDCA0B1B0F5001F16D0012564
:1011000022E0A06DD8F8001021F4E0710843C8F87F
:101110000000E4E7B0F5C00F18BFB0F5000FEED146
:1011200011E0386840F4003038600CE004F104004D
:101130004FF0000101F0EEFD04E0002104F1240075
:1011400001F08AFE054685B12E46208810F4006F16
:1011500030D0D4F8A800B0F1007F23D00FDCA8B1C4
:10116000B0F1807F17D0012523E0D4F8A400D9F88E
:10117000001021F460010843C9F80000E5E7B0F170
:10118000407F18BFB0F1806FEDD111E0386840F4B6
:10119000003038600CE004F104004FF0000101F071
:1011A000B9FD04E0002104F1240001F055FE0546DC
:1011B0007DB12E46206810F0007F20D0A06CE0B1F9
:1011C000102810D0202813D0302818BF012514D0A3
:1011D00014E0D4F8A800D9F8001021F0E061084329
:1011E000C9F80000E6E7386840F40030386004E0F1
:1011F0000221201D01F08EFD05467DB12E4620887E
:1012000010F4805F2DD0E06DB0F5005F21D00DDCD3
:1012100098B1B0F5805F15D0012521E07148A16C2F
:10122000026822F0300211430160E8E7B0F5405F48
:1012300018BFB0F5804FEFD111E0386840F40030AE
:1012400038600CE004F104004FF0000101F062FD91
:1012500004E0002104F1240001F0FEFD054695B1F3
:101260002E46208810F4005F2CD0206EB0F5403F51
:1012700026D011DC20B3B0F5803F14D0B0F5003F8C
:1012800018D001251DE0E16DD8F8000020F4E04001
:101290000843C8F80000E4E7B0F5802F18BFB0F5A8
:1012A000A02FEED10CE004F104004FF0010101F099
:1012B00031FD04E0012104F1240001F0CDFD0546DB
:1012C0009DB12E46208810F4804F2DD0D4F8AC006C
:1012D000B0F1405F26D011DC20B3B0F1805F14D0B4
:1012E000B0F1005F18D001251DE0206ED8F8001085
:1012F00021F4E0210843C8F80000E3E7B0F1804F93
:1013000018BFB0F1A04FEED10CE004F104004FF093
:10131000010101F0FFFC04E0012104F1240001F0CF
:101320009BFD05467DB12E46208810F4004F20D04D
:10133000E06EE0B1B0F1805F0FD0B0F1005F18BF98
:1013400001250FD014E0D4F8AC10D9F8000020F03B
:10135000E0400843C9F80000E6E7386840F4003090
:10136000386004E00121201D01F0D4FC05467DB168
:101370002E46206810F0807F1FD0606CD8B1012805
:101380000FD0022812D0032818BF012513D013E074
:10139000E06ED8F8001021F040510843C8F8000072
:1013A000E7E7386840F40030386004E00221201D8F
:1013B00001F0B0FC054605B32E46206810F4800FFE
:1013C00032D0DFF824A0DAF8000040F48070CAF8C8
:1013D0000000FFF71BF909E02C4402585044025862
:1013E000584402584C440258004802588346DAF8E0
:1013F000000010F4807F08D014E0F748616C0268A8
:1014000022F0030211430160D7E7FFF7FFF8A0EBDA
:101410000B00642801D9032505E0DAF8000010F478
:10142000807FF2D08DB12E462078DFF8B0A310F087
:10143000010F71D0A06F18286CD059DCA8B3082810
:101440005BD0102860D0012565E0E548B4F8B020F5
:10145000016802F4407001F4407181420CD0E04810
:101460000168026821F4407142F48032026002682F
:1014700022F4803202600160D4F8B000B0F5807FC1
:1014800019D1FFF7C3F88246D548016811F0020F61
:1014900008BF41F2883B0ED1FFF7B8F8A0EB0A0075
:1014A000584503D903252E46BEE733E0CC480068F3
:1014B00010F0020FF0D0D4F8B0104FF44070884311
:1014C000C8481CBF016821F47C5109D00160C448A0
:1014D000B4F8B0200168C2F30B0211430160A3E726
:1014E000C14A036802EA111123F47C521143EDE76B
:1014F000202818BF2828A6D10CE004F104004FF0E2
:10150000010101F007FC04E0012104F1240001F0D5
:10151000A3FC054665B12E46207810F0020F1FD0BF
:10152000606F06281AD2DFE800F0170C11171717A2
:10153000A06FDAF8001021F038010843CAF8000063
:10154000EAE70121201D01F0E5FB04E0012104F19F
:10155000240001F081FC05467DB100E001252E4606
:10156000207810F0040F20D0D4F8900006281AD26A
:10157000DFE800F0170C11171717606FDAF800108A
:1015800021F007010843CAF80000E9E70121201D06
:1015900001F0C0FB04E0012104F1240001F05CFC37
:1015A0000546ADB100E001252E46207810F0200F51
:1015B0002ED0D4F88C00B0F1405F27D012DC28B3D5
:1015C000B0F1805F15D0B0F1005F19D001251EE0A9
:1015D000D4F89000D9F8001021F007010843C9F8A9
:1015E0000000E2E7B0F1804F18BFB0F1A04FEDD19D
:1015F0000CE004F104004FF0000101F08BFB04E06B
:10160000022104F1240001F027FC05469DB12E467D
:10161000207810F0400F2ED0D4F89800B0F5406F2D
:1016200027D012DC28B3B0F5806F15D0B0F5006F6D
:1016300019D001251EE0D4F88C00DAF8001021F052
:10164000E0410843CAF80000E2E7B0F5805F18BF48
:10165000B0F5A05FEDD10CE004F104004FF0000103
:1016600001F058FB04E0022104F1240001F0F4FB36
:1016700005469DB12E46207810F0800F2ED0D4F86C
:101680009C00B0F5C04F27D012DC28B3B0F5005F46
:1016900015D0B0F5804F19D001251EE0D4F8981070
:1016A000D9F8000020F4E0500843C9F80000E2E750
:1016B000B0F5004F18BFB0F5204FEDD10CE004F1AC
:1016C00004004FF0000101F025FB04E0022104F1C9
:1016D000240001F0C1FB054655B12E46207810F0DC
:1016E000080F20D0D4F88000B0F5805F0AD011E058
:1016F000D4F89C00D9F8001021F460410843C9F8DF
:101700000000EBE7022104F1240001F0A5FB002812
:1017100018BF0126D4F88000DAF8001021F44051F7
:101720000843CAF80000207810F0100F15D0D4F844
:101730009400B0F5807F07D1022104F1240001F06C
:101740008BFB002818BF0126D4F89400D9F80010AC
:1017500021F440710843C9F80000206810F4002FFC
:1017600018D0D4F8A00040B1B0F5803F0AD0B0F551
:10177000003F18BF01250BD00BE00021201D01F018
:10178000C9FA04E0022104F1240001F065FB0546DA
:1017900095B12E46206810F4802F2FD0D4F8840005
:1017A000B0F5801F12D0B0F5001F1FD0B0F5401F5C
:1017B00018BF012520D020E0D4F8A000D9F80010EF
:1017C00021F440310843C9F80000E3E7386840F4E9
:1017D0000030386010E000004C4402585444025875
:1017E0007044025810440258CFFFFF00012104F159
:1017F000240001F031FB054665B12E46206810F447
:10180000803F1DD0E06C78B1B0F5803F18BF012556
:101810000FD014E0D4F88400DAF8001021F440115D
:101820000843CAF80000E9E7386840F4003038603F
:1018300004E00221201D01F06DFA0546EDB12E46AF
:10184000206810F0005F07D0022104F1240001F0AD
:1018500003FB002818BF0126206810F4003F1BD0AE
:10186000E06FB8B1B0F5807F10D0B0F5007F1CBF3D
:10187000B0F5407F01250DD00DE03848E16C0268DD
:1018800022F4803242EA01010160D9E7386840F46D
:1018900000303860F5B32E46206810F4801F08D061
:1018A000206FD8F8001021F0004141EA0000C8F88C
:1018B0000000206810F0805F08D02948D4F8B410E8
:1018C000026822F4804242EA01010160206810F4BB
:1018D000001F08D0A06ED8F8001021F0807141EAF6
:1018E0000000C8F80000206810F0804F0AD01C48A3
:1018F000016821F4004101600168D4F8B82041EA90
:1019000002010160206810F0004F09D01348216DDA
:10191000026800E018E022F0405242EA0101016052
:10192000206810F4000F09D0D4F88800DAF800100D
:1019300021F4400141EA0000CAF80000002E0CBF6B
:1019400000200120BDE8F09FE06FDAF8001021F4DC
:1019500040710843CAF800009EE700004C4402585A
:1019600010440258002804BF012070472DE9F05FA1
:10197000DFF85C9204468A46D9F8000000F00F00B8
:1019800050450DD2D9F8000020F00F0040EA0A00BF
:10199000C9F80000D9F8000000F00F0050457DD1D3
:1019A00020788C4D10F0040F0AD02069296801F0CE
:1019B0007001884204D9296821F070010843286029
:1019C0002078854E10F0080F0AD06069316801F068
:1019D0007001884204D9316821F0700108433060F9
:1019E000207810F0100F0AD0A069316801F4E0618E
:1019F000884204D9316821F4E061084330602078DE
:101A000010F0200F0BD07548E169026802F07002F7
:101A1000914204D9026822F07002114301602078DB
:101A200010F0020F0AD0E068296801F00F01884227
:101A300004D9296821F00F0108432860207810F0AC
:101A4000010F45D06648A1682A6822F470621143EC
:101A500029606168022926D0032929D0006801295C
:101A60002BD010F0040F56D05E4F386820F00700DE
:101A700008433860FEF7CAFD39688046606801F0A7
:101A80003801B1EBC00F18BF41F2883B20D000BF36
:101A9000FEF7BCFDA0EB0800584500E03BE010D984
:101AA0000320BDE8F09F006810F4003FDCD132E075
:101AB000006810F0007FD7D12DE010F4807FD3D1E3
:101AC00029E06068396801F03801B1EBC00FDFD15F
:101AD000207810F0020F0AD0E068296801F00F01A9
:101AE000814204D9296821F00F0108432860D9F800
:101AF000000000F00F00504510D9D9F8000020F088
:101B00000F0040EA0A00C9F80000D9F8000000F010
:101B10000F00504502D00120BDE8F09F207810F062
:101B2000040F0AD02069296801F07001814204D9AC
:101B3000296821F0700108432860207810F0080F10
:101B40000AD06069316801F07001814204D93168BE
:101B500021F0700108433060207810F0100F0AD097
:101B6000A069316801F4E061814204D9316821F44F
:101B7000E06108433060207810F0200F0BD0174848
:101B8000E169026802F070028A4204D9026822F018
:101B900070021143016000F0AFF813492B682A6806
:101BA000C3F3032302F00F02CB5C895C03F01F0236
:101BB00001F01F01D0400D4A20FA01F111600C49DB
:101BC00008600C480068BDE8F05FFEF75BBD0000F0
:101BD00000200052184402581C4402582044025865
:101BE0000044025810440258743C000814000020BD
:101BF000100000200800002010B500F07DF80C4A0D
:101C00000C490D4B1468D2F800C0C4F303220CF049
:101C10000F0C8A5C11F80CC002F01F01074A20FA71
:101C200001F10CF01F0021FA00F01860116010BDE6
:101C300018440258743C00081400002010000020D2
:101C400010B500F059F8104A1049114B1468D2F839
:101C500000C0C4F303220CF00F0C8A5C11F80CC016
:101C600002F01F02D0400CF01F0220FA02F21A60AC
:101C7000084B186008480068C0F30210085C00F0C8
:101C80001F0022FA00F010BD18440258743C0008EE
:101C900014000020100000201C44025810B500F071
:101CA0002BF8104A1049114B1468D2F800C0C4F345
:101CB00003220CF00F0C8A5C11F80CC002F01F021A
:101CC000D0400CF01F0220FA02F21A60084B186094
:101CD00008480068C0F30220085C00F01F0022FAE8
:101CE00000F010BD18440258743C00081400002095
:101CF000100000201C4402585E4930B45E48096858
:101D00005E4B11F038020CD00111082A06D0102ABF
:101D100002BF5B4830BC7047182A0ED030BC084662
:101D20007047196811F0200F04BF30BC7047196864
:101D300030BCC1F3C101C84070475249524C01F157
:101D4000040C0A680968DCF80050246802F0030CEF
:101D500005F00102C1F30511C4F3CC04002914FB02
:101D600002F200EE102AF8EE400A02BF002030BC5A
:101D70007047BCF1000F9FED451A454AB7EE000AC7
:101D80001BD0DFED441ABCF1010F02D0BCF1020FF1
:101D90004AD002EE101A1068F8EE422AC0F308008A
:101DA00081EEA22A01EE900AF8EE611A40EE811A45
:101DB00031EE800A22EE000A4BE0D3F800C01CF09E
:101DC000200F1BD01B6801EE901A1168C3F3C103EA
:101DD000F8EE612AD84001EE900AC1F30800F8EE4F
:101DE000611A81EEA22A01EE900AF8EE611A40EE25
:101DF000811A31EE800A22EE000A2AE001EE901AE2
:101E00001068DFED252AF8EE611AC0F3080082EEB3
:101E1000A12A01EE900AF8EE611A40EE811A31EE25
:101E2000800A22EE000A14E001EE901A1068DFED3D
:101E30001B2AF8EE611AC0F3080082EEA12A01EE17
:101E4000900AF8EE611A40EE811A31EE800A22EE15
:101E5000000A106830BCC0F34620401C00EE900A17
:101E6000F8EE600A80EE201ABCEEC10A10EE100AED
:101E700070470000104402580090D00300440258FC
:101E800040787D012844025834440258000000394B
:101E9000304402580024744A0024744C20BCBE4BC9
:101EA000002804BF012070472DE9F05F0446007848
:101EB000DFF8EC93FB4F10F0010FFB4D58D0D9F831
:101EC0000000396800F03800102819D0182804BF25
:101ED00001F00300022813D06068B0F5803F04BF12
:101EE000286840F4803014D010B1B0F5A02F1BD07A
:101EF000286820F480302860286820F4802008E0DA
:101F0000286810F4003F33D06068002800F0C682D3
:101F10002EE028606068D0B1FEF778FB064628689E
:101F200010F4003F08D023E0286840F480202860A7
:101F3000286840F48030ECE7FEF768FB801B6428DB
:101F400000F2FD81286810F4003FF5D010E0FEF7A4
:101F50005DFB0646286810F4003F09D0FEF756FBEB
:101F6000801B642800F2EB81286810F4003FF5D153
:101F7000207841F2030ACD4E10F0020F7FD0D9F83D
:101F80000000396810F0380014D0182808BF11F08C
:101F9000030F0FD0E068D8B3296821F0190141EA96
:101FA00000002860FEF732FB8046286810F0040F1E
:101FB00036D040E0286810F0040F03D0E068002815
:101FC00000F06C82E068296821F01901084328605C
:101FD000FEF71CFB8046286810F0040F0BD100BFF1
:101FE000FEF714FBA0EB0800022800F2A881286885
:101FF00010F0040FF4D0FEF703FB504509D8206918
:1020000040281FD0316821F47C3141EA00301EE0C5
:102010001FE0207C316821F0FE4141EA006016E0BB
:10202000FEF7F4FAA0EB0800022800F28881286885
:1020300010F0040FF4D0FEF7E3FA5045E9D8206918
:102040004028DFD1306820F47C3040F4003030602C
:1020500015E0286820F001002860FEF7D7FA8046D6
:10206000286810F0040F0AD0FEF7D0FAA0EB0800A1
:10207000022800F26481286810F0040FF4D120785F
:1020800010F0100F69D0D9F80000DFF82482396809
:1020900000F03800082814D0182804BF01F003000D
:1020A00001280ED0E0690028286843D040F0800065
:1020B0002860FEF7ABFA8346286810F4807F27D0AB
:1020C00030E0286810F4807F1CBFE069802840F071
:1020D000E581FEF795FA50450FD8206A202805D1F2
:1020E000306820F0F84040F0804004E0316821F092
:1020F000F84141EA806030602FE094F82000D8F881
:10210000001021F07C5141EA0060C8F8000024E092
:10211000FEF77CFAA0EB0B0002287DD8286810F4AB
:10212000807FF5D0FEF76CFA5045E6D8206A20286B
:10213000DCD1D5E720F080002860FEF767FA06467C
:10214000286810F4807F08D0FEF760FA801B022810
:1021500062D8286810F4807FF6D1207810F0080F3C
:102160002ED0544E60690028306814D040F0010031
:102170003060FEF74BFA8046306810F0020F1FD136
:10218000FEF744FAA0EB0800022845D8306810F0AA
:10219000020FF5D014E020F001003060FEF736FAAF
:1021A0008046306810F0020F0AD000BFFEF72EFA0A
:1021B000A0EB080002282FD8306810F0020FF5D1EC
:1021C000207810F0200F2CD0A0690028286813D0A8
:1021D00040F480502860FEF719FA0646286810F48B
:1021E000005F1ED1FEF712FA801B022814D828685F
:1021F00010F4005FF6D014E020F480502860FEF761
:1022000005FA0646286810F4005F0AD0FEF7FEF9CA
:10221000801B022800D800E091E0286810F4005FDD
:10222000F4D1207810F0040F6ED0DFF88C80D8F84D
:10223000000040F48070C8F80000FEF7E7F9064699
:10224000D8F8000010F4807F0AD100BFFEF7DEF955
:10225000801B642873D8D8F8000010F4807FF5D074
:10226000A068164E012804BF306840F0010009D074
:1022700008B1052824D0306820F0010030603068B3
:1022800020F004003060A06841F2883A58B3FEF7AD
:10229000BDF98046306810F0020F19D034E000001C
:1022A000104402582844025800440258044402587A
:1022B0000C440258744402580048025870440258B2
:1022C000306840F004003060306840F00100D9E729
:1022D000FEF79CF9A0EB0800504530D8306810F0AC
:1022E000020FF5D010E0FEF791F98046306810F04B
:1022F000020F09D0FEF78AF9A0EB080050451ED85E
:10230000306810F0020FF5D1606AE0B3664ED9F87C
:10231000001001F0380118297ED00228286820F02A
:10232000807028600ED0FEF771F90446286810F01E
:10233000007F28D0FEF76AF9001B02286DD9032020
:10234000BDE8F09FFEF762F98046286810F0007F34
:102350000AD000BFFEF75AF9A0EB08000228EED819
:10236000286810F0007FF5D1E06A3A68A16A22F08F
:10237000F30222F4407242EA0010084338604FF43E
:10238000FE02100200E08CE0238EB4F838C094F80E
:102390003410A3F1010894F83C70ACF10103490238
:1023A000A7F1010CA1F5007101F47E4102EA03429C
:1023B000C8F308073943114300EA0C633B4841EA7C
:1023C00003023B493260026822F0010202600A689F
:1023D000A36C6FF3CF0242EAC3020A600268216C69
:1023E00022F00C02114301600168626C21F00201CD
:1023F00011430160016841F480310160016841F4DA
:1024000000310160016841F480210160016841F000
:1024100001010160286801E01AE013E040F08070DB
:102420002860FEF7F3F80446286810F0007F38D1E2
:10243000FEF7ECF8011B022981D8286810F0007F14
:10244000F6D02EE0286810F0007F7FF473AF28E00C
:1024500039680128306821D0A26A01F00303934251
:102460001CD1E26AC1F305118A4217D1226BC0F375
:102470000801521E914211D1616BC0F34622491EE0
:1024800091420BD1A16BC0F30642491E914205D186
:10249000E16BC0F30660491E814202D00120BDE815
:1024A000F09F0020BDE8F09F304402582C440258B1
:1024B00034440258401EB0F1807F24BF0120704791
:1024C0004FF0E0214861F020034A82F8140D00200B
:1024D000072288610A6170470FE000E090F88010E1
:1024E000012904BF022070474DF8044D012280F8F5
:1024F000802024214FF0200C0022C0F884100168B5
:102500000B680C6823F0005324F001040C60426651
:1025100001680B60C0F884C080F8802010465DF828
:10252000044B704790F88020012A04BF02207047B6
:1025300030B4012280F880202423C0F8843003685E
:10254000D3F800C01C6824F001041C6003689C6878
:1025500024F0606421439960416E002908BFA0F80F
:102560006A2014D00168114B03F108048A68896855
:10257000C2F34262490F5D5C615C2D01B5FBF1F570
:10258000A0F86A50995CA25C0901B1FBF2F2A0F8D4
:102590006820202203680021C3F800C0C0F884200E
:1025A00080F88010084630BC70470000643C00088A
:1025B00090F88020012A04BF0220704730B4012225
:1025C00080F880202423C0F884300368D3F800C04A
:1025D0001C6824F001041C6003689C6824F06044BB
:1025E00021439960416E002908BFA0F86A2014D0E9
:1025F0000168114B03F108048A688968C2F34262DA
:10260000490F5D5C615C2D01B5FBF1F5A0F86A50E6
:10261000995CA25C0901B1FBF2F2A0F868202022CB
:1026200003680021C3F800C0C0F8842080F880103F
:10263000084630BC70470000643C0008002804BF16
:102640000120704710B50446D0F8840028B9002056
:1026500084F88000204600F029F82420C4F8840083
:102660002068016821F001010160204600F022FE8F
:10267000012808BF10BDA06A00281CBF204600F03A
:1026800079FD2068416821F49041416020688168AB
:1026900021F02A0181602068016841F00101016098
:1026A0002046BDE8104000F0D2BD000010B586B055
:1026B0000022009201920292039204920068A0F11B
:1026C0008041B1F588311CBF06B010BD18480168C3
:1026D00041F010010160006800F0100005901548FD
:1026E000016841F001010160016801F001010591FB
:1026F000016841F0010101600068022101224FF0F0
:10270000070C00F00100059003230B4C4FF4007000
:102710008DE80F1069462046FDF752FE4FF48060A9
:10272000694600902046FDF74BFE06B010BD000044
:10273000F0440258E0440258000002582DE9F843E2
:102740000446D0F884001F4615460E46202858D16E
:10275000002E12BF002D0120BDE8F88394F8800000
:1027600001284ED0012184F8801021204FF000096B
:10277000C4F88C90C4F88400FDF748FF8046A06838
:10278000A4F85450A4F85650B0F5805F03BF2069F8
:1027900000280025354618BF0026B4F8560084F8F6
:1027A0008090E8B143464FF000024FF08001204690
:1027B000009700F05FFFD8B9002D14BF15F8010B8A
:1027C00036F8020B216808BFC0F308008862B4F82D
:1027D0005600401EA4F85600B4F856000028E1D177
:1027E0000022434640212046009700F043FF10B1ED
:1027F0000320BDE8F8832020C4F884000020BDE851
:10280000F8830220BDE8F883FEE7000030B587B00A
:1028100011480024009401940294039404940168E4
:1028200041F00401016000684FF400510B4D224655
:1028300000F0040005902846FDF7DCFE4FF4005040
:10284000009001212846CDE9011469460394FDF763
:10285000B7FD07B030BD0000E04402580008025840
:10286000FEE7FEE770472DE9F0014B6A002B18BF29
:10287000B2F1406F06D0D0F800C08B6AA3F101031B
:10288000CCF810308B69002B7AD0D1F820C0BCF185
:10289000000F4FD00368D1F808C0C3F81CC0D1F8AE
:1028A0002CC0CB6953B3D1E90C564F6A8C8A4CEAE1
:1028B00005053E432E430D6A46EA8446D1E9034CA2
:1028C00046EA0C0C4CEA0505D1F818C02C430D68FB
:1028D000234343EA0C0C03684CEA050CB2F1406F49
:1028E0004CEA020CC3F814C004BFBDE8F001704705
:1028F000496800688161BDE8F0017047D1E90C5476
:102900004E6A8B8A4CEA050C44EA06050C694CEACF
:102910000505D1F820C045EA8343006823438C694C
:10292000096843EA0C032343194311434161BDE89D
:10293000F0017047D1F81CC0BCF1000F21D0D1E9E3
:102940000B45D1F824804E6B8F8A2C4346EA08054C
:102950002C43CD6844EA874425430C6845EA0C0CB7
:102960004CEA030C03684CEA040CB2F1406F4CEAE9
:10297000020CC3F814C004BFBDE8F0017047B7E70C
:1029800017E0D1F82CC0D1E90C464F6A8D8A4CEA89
:10299000040C46EA070400684CEA040C09684CEA97
:1029A000854C4CEA0303194311434161BDE8F00132
:1029B00070470B6AE3B30368D1F808C0C3F81CC0C2
:1029C000CB6913B3D1E90B454F6A4E6BB1F814C014
:1029D00025433E432E430D6A46EA8C46D1E903C4A3
:1029E000344325438C6945EA0C0C4CEA030C03681C
:1029F0004CEA040CB2F1406F4CEA020CC3F814C06C
:102A000004BFBDE8F001704772E7D1E90C45D1F889
:102A10002CC04E6A8B8A4CEA040C35430C694CEA94
:102A20000505D1F820C045EA83431C438B6900E0CB
:102A300008E0006844EA0C01194311434161BDE814
:102A4000F0017047CB69F3B1D1E90C45D1F82CC046
:102A50004E6A8F8A4CEA040C45EA06044CEA040CE0
:102A6000CC684CEA874C4CEA040C4CEA0303D0F8DF
:102A700000C01343B2F1406FCCF8143004BFBDE87E
:102A8000F001704734E74B6A002B04BFBDE8F0014A
:102A90007047D1E90B458E8AD1F834C0016844EA09
:102AA00005004CEA0303184340EA8640104348619E
:102AB000BDE8F0017047000010B594B04FF0100C65
:102AC000002001210D900B020C930A060E900523A5
:102AD0000F9211908C0512906A4613900B90009003
:102AE000CDE90310CDE90543CDE9011C054806A950
:102AF00041F28833FDF764FE002818BF6FF0020032
:102B000014B010BDAC00002070B539484C2190B015
:102B1000FDF718FC364D374E28462E60FDF7F1FEC6
:102B200045F8046B0024012020211022162385E89B
:102B30001F00C5E905042E48EC61FDF7F5FE4FF4D2
:102B400080750594CDE9065466200894009041F202
:102B50008832274869460B940C940D940994FDF72C
:102B600087FE70B9FFF7A8FF58B999200090204858
:102B700041F288326946FDF77BFE002808BFFFF767
:102B80009BFF4FF400530894032105949F220B945C
:102B90000C94D8020D94009241F28832CDE906548B
:102BA0000393CDE9090112486946FDF761FE10481B
:102BB0000EA941F28832FDF7EBFF9DF838209DF811
:102BC00039009DF83A10120442EA002001430A48F5
:102BD000814205D109A000F0E9FD10B0002070BDD0
:102BE0000CA000F0E3FD10B04FF0FF3070BD00000E
:102BF000AC000020005000521740EF005732355112
:102C00003634204F4B2C666C6173682049443A255A
:102C1000580D0A00573235513634204552524F5222
:102C20002121212121202049443A25580D0A000064
:102C300010B59EB04FF0060C00204FF480714FF499
:102C400040620B904C0103940C90EB24CDE90612EA
:102C5000CDF814C09303089066221D900094CDE92E
:102C600014100D900EA909931C9016900E9241F22B
:102C7000883219901A901B90179013900E48FDF708
:102C8000F7FD70B9FFF718FF58B999200E900A4860
:102C90000EA941F28832FDF7EBFD002808BFFFF7CF
:102CA0000BFF1CAA04486946FDF79AFE002818BFCE
:102CB0006FF005001EB010BDAC0000202DE9F04102
:102CC0000446006898461646069D0F4680683840C0
:102CD00018BF0120B04210D0B5F1FF3F06D0FDF77C
:102CE00095FCA0EB0800A8420AD84DB12068806886
:102CF000384018BF0120B042EED10020BDE8F0817D
:102D0000042084F84100606C40F001006064012000
:102D1000BDE8F0812DE9F047DFF82C9188460446A4
:102D200003200027D9F80010884304BF0120BDE824
:102D3000F087464E306820F080603060FDF766FC1A
:102D40000546306810F0006F09D000BFFDF75EFC4B
:102D5000401B02286DD8306810F0006FF6D1206853
:102D6000D9F8001021F47C3141EA0030C9F80000A4
:102D70004FF4FE010A0294F808C0A588B4F80C903C
:102D800094F810A06D1E4FEA4C2C314BACF5007C32
:102D90003048A9F101090CF47E4CAAF1010AC5F3EF
:102DA000080501EA09414CEA050C02EA0A624CEA0C
:102DB0000101114319600268616922F0C0021143E8
:102DC00001600168A26921F020010A430260191D17
:102DD000026822F0100202600A68E3696FF3CF0212
:102DE00042EAC3020A600168B8F1000F41F0100125
:102DF000016014D00168B8F1010F0CBF41F48011DB
:102E000041F400110160306840F080603060FDF7EF
:102E1000FDFB0446306810F0006F05D010E001683B
:102E200041F400210160EEE7FDF7F0FB001B0228F2
:102E300002D90320BDE8F087306810F0006FF3D0AE
:102E40003846BDE8F0870000284402580044025884
:102E5000384402582C4402582DE9F047DFF82C91F1
:102E60008846044603200027D9F80010884304BF91
:102E70000120BDE8F087464E306820F08050306079
:102E8000FDF7C4FB0546306810F0005F09D000BFB5
:102E9000FDF7BCFB401B02286DD8306810F0005FC6
:102EA000F6D12088D9F8001021F07C7141EA005059
:102EB000C9F800004FF4FE010A0294F808C0A58882
:102EC000B4F80C9094F810A06D1E4FEA4C2C314BC6
:102ED000ACF5007C3048A9F101090CF47E4CAAF154
:102EE000010AC5F3080501EA09414CEA050C02EAAA
:102EF0000A624CEA0101114319600268616922F417
:102F00004062114301600168A26921F400710A4323
:102F10000260191D026822F4807202600A68E36987
:102F20006FF3CF0242EAC3020A600168B8F1000FF2
:102F300041F48071016014D00168B8F1010F0CBF39
:102F400041F4000141F080710160306840F0805030
:102F50003060FDF75BFB0446306810F0005F05D081
:102F600010E0016841F480010160EEE7FDF74EFBDF
:102F7000001B022802D90320BDE8F087306810F05A
:102F8000005FF3D03846BDE8F087000028440258BF
:102F900000440258404402582C4402587047FDF740
:102FA0003BBB000030B5CBB04C212FA8FDF7CAF9D0
:102FB000002442944394BC2144946846459446942A
:102FC000479448944994FDF7BDF90220FDF7CAFBE8
:102FD00025482649026842F44042026002680A68B5
:102FE00042F001020A60096801F001014A9101689A
:102FF00011F4005FFBD005214FF0010C0220389046
:10300000C022CDE93901CDE93B203D9008253E9015
:10301000C303CDE93F5441942FA8CDE92FC3FEF758
:103020003FFF08B172B6FEE740204494032203013B
:10303000CDE945503F21CDE94703CDE942120421B6
:10304000499042A8FEF78EFC08B172B6FEE74FF039
:103050000070129400906846FDF7BCFF002804BF82
:103060004BB030BD72B6FEE7184802582C04005829
:10307000324870B4324A016841F47001016010684E
:1030800000F00F00072805D2106820F00F0040F074
:10309000070010602B4900202B4B0C68DFF8ACC0F8
:1030A00044F001040C6018600B6803EA0C030B6029
:1030B000136803F00F03072B05D9136823F00F03E0
:1030C00043F007031360DFF88CC0214A224B0CF158
:1030D0000406341DCCF80000204DDFF884C03060B9
:1030E0002E1D2060341D2B60231DC6F800C003F187
:1030F000040C22600CF10404251D18602B1DCCF873
:10310000002020602A6018600A68164BDFF858C05B
:1031100022F480220A601860DCF800006FF30F00D0
:10312000B0F1005F03D211490120C1F8080143F258
:10313000D2000F49086070BC7047000088ED00E0C5
:103140000020005200440258104402587FEDF6EA75
:103150008002010118440258000202022844025869
:103160000000FF01604402580010005C0080005124
:103170000040005290F8281011F0010F06D00168AD
:10318000C26A4B6823F400331A434A6090F828104F
:1031900011F0020F06D00168026B4B6823F48033F4
:1031A0001A434A6090F8281011F0040F06D0016805
:1031B000426B4B6823F480231A434A6090F828102E
:1031C00011F0080F06D00168826B4B6823F40043AE
:1031D0001A434A6090F8281011F0100F06D00168C9
:1031E000C26B8B6823F480531A438A6090F82810CE
:1031F00011F0200F06D00168026C8B6823F4005395
:103200001A438A6090F8281011F0400F11D001681D
:10321000426C4B6823F480131A434A60416CB1F549
:10322000801F06D10168826C4B6823F4C0031A43E7
:103230004A6090F8281011F0800F08BF70470168AD
:10324000C06C4A6822F40022104348607047F8B509
:1032500000250446C0F88C50FDF7D8F907462068D1
:103260006FF07E46006810F0080F08D000223B4641
:103270004FF400112046009600F0FCF968B9206870
:10328000006810F0040F0AD000223B464FF4800182
:103290002046009600F0EEF908B10320F8BD20208A
:1032A000C4F88400C4F88800E566002084F88050E3
:1032B000F8BD00002DE9F041D0F808C00446C66909
:1032C00086B00068D4E90451E34AE44B4CEA050CAB
:1032D0000768002531433A404CEA0101114301607F
:1032E0002068E168426822F440521143416022683C
:1032F000A1699A421CBF206A01439668D84826F407
:10330000306626F06E46314391602168626ACE6A6B
:1033100026F00F063243CA622268A2F1804CBCF547
:10332000883C2FD0A2F18041B1F588413BD0A2F179
:103330008041B1F5904140D0A2F18041B1F5984172
:1033400045D0A2F18041B1F5A0414AD0A2F180411F
:10335000B1F58A314FD0A2F18041B1F5F0415ED094
:10336000A2F18041B1F5F84163D09A4279D1001DB4
:10337000006800F00700062873D2DFE800F06668F6
:103380006A6C6E70006800F03800182863D005DCA5
:10339000E8B308285BD010285BD062E020285CD01E
:1033A00028285CD05DE0006800F00700062858D2AD
:1033B000DFE800F0494D4F515355006800F0070019
:1033C00006284ED2DFE800F03F434547494B0068EE
:1033D00000F00700062844D2DFE800F035393B3D15
:1033E0003F41006800F0070006283AD2DFE800F00D
:1033F0002B2F31333537006800F0380018282AD0D9
:1034000006DC20B1082822D0102822D029E004E0D0
:10341000202822D0282822D023E0012122E00068A1
:1034200000F0070006281CD2DFE800F00D1113158C
:103430001719006800F00700062812D2DFE800F034
:103440000307090B0D0F00210CE002210AE0042103
:1034500008E0082106E0102104E0202102E04021DC
:1034600000E080217F48804F9A42804B4FF0000659
:103470004FEA201251D110291ED006DC02290ED0AD
:1034800004290FD0082912D0E3E0202908BF1046F4
:103490001BD0402908BF4FF4004016D0D9E0FDF7FB
:1034A000DBFB11E06846FDF7E9FB01980CE003A89F
:1034B000FDF7BAFC049807E0196811F0200F04D05A
:1034C0001968C1F3C101C840B8B3616AD4F8048077
:1034D00037F8112008EB4803B0FBF2F18B4298BF9C
:1034E000B1EB083F7CD800231946FCF7F3FE0246F7
:1034F0000B02110E120219434FEA580010184246EF
:1035000071410023FCF7E6FE5949A0F54072914253
:1035100024BF2168C86058D29BE0D4F81CC04FF685
:10352000EF78BCF5004F09D0082972D059DCE9B317
:10353000012965D0042966D08BE046E008291DD01A
:1035400005DC81B1012911D0042912D081E01029B4
:1035500019D0202908BF10461ED0402908BF4FF4BB
:10356000004019D075E0FEF76BFB14E0FEF796FB08
:1035700011E06846FDF782FB01980CE003A8FDF717
:1035800053FC049807E0196811F0200F04D0196863
:10359000C1F3C101C840C0B1626A616837F8122046
:1035A000B0FBF2F0400000EB510000E025E0B0FB82
:1035B000F1F0A0F1100141454BD84FF6F0732168AE
:1035C000C0F3420218401043C8600120A4F86A000A
:1035D000A4F8680028462667666706B0BDE8F08153
:1035E00037E010291AD0202908BF104620D04029E2
:1035F00008BF4FF400401BD02BE0FEF721FB15E085
:10360000FEF74CFB12E06846FDF738FB01980DE031
:10361000FFE703A8FDF708FC049807E0196811F01C
:10362000200F05D01968C1F3C101C8400028CCD0D3
:10363000626A616837F81220B0FBF2F000EB5100CB
:10364000B0FBF1F0A0F1100141459CBF216880B2B0
:10365000BAD90125B9E70000F369FFCF000C005883
:10366000544402580090D0034C3C000800440258D7
:10367000FFFC0F002DE9F047044600681F46924604
:10368000089D0E46C06931EA00000CBF01200020F1
:10369000504504BF4FF000094FF0200859D100BF3A
:1036A000B5F1FF3F4CD0FCF7B1FFC01BA8422CD8AE
:1036B0005DB32068016811F0040F1CBFC06910F4ED
:1036C000006F3DD021684FF400600862216851E826
:1036D000000F20F4D07041E80002002AF6D12068E3
:1036E00000F1080151E8000F20F0010041E800025C
:1036F000002AF4D1C4F8848084F88090C4F88880CB
:10370000C4F88C800320BDE8F087216851E8000FE1
:1037100020F4D07041E80002002AF6D1206800F1C0
:10372000080151E8000F20F0010041E80002002AE2
:10373000F4D1C4F8848084F88090C4F88880E1E7EC
:103740002068C06936EA00000CBF01200020504507
:10375000A6D00020BDE8F08712480021DFF840C065
:103760000C2210B54FF4E133C0F800C0C0E90131BC
:10377000C160C0E904128161C1610162416281627C
:10378000FEF75CFF07480021FEF712FF0548002105
:10379000FEF7C8FEBDE810400248FEF79FBE0000DD
:1037A000001001401C000020FEE700000FB4054B94
:1037B00010B503A9044A029800F018F810BC5DF88F
:1037C00014FB0000AD3A00081800002002E008C811
:1037D000121F08C1002AFAD170477047002001E08B
:1037E00001C1121F002AFBD1704700002DE9FF4FD5
:1037F0008DB09B460F460446002606E025280BD0D8
:103800005A460F999047641C761C20780028F5D101
:1038100011B03046BDE8F08F0025A8460122984936
:1038200000E0054314F8013F203B02FA03F0084290
:10383000F7D120782E2817D114F8010F45F0040590
:103840002A280ED06FF02F022078A0F1300109292C
:103850000AD808EB880102EB410100EB0108641C67
:10386000F2E757F8048B641C20786C280DD004DC38
:103870004C2812D06A2811D104E074280DD07A287F
:103880000CD10AE045F4001507E0617845F4801595
:10389000814202D1641C05F58015641C20786928DA
:1038A00044D008DC0028B3D0582867D063280FD054
:1038B000642808D13AE0702865D0732812D07528A2
:1038C0005AD078285AD05A460F999047761CD5E09E
:1038D00017F8040B8DF8000000208DF80100E94670
:1038E000012003E057F8049B4FF0FF3069074FF0C9
:1038F000000501D40AE06D1C45450DDA8542FADB6E
:1039000019F805100029F6D106E06D1C8542FCDB94
:1039100019F805100029F8D12E4404E019F8010B1C
:103920005A460F9990476D1EF8D2A7E00A20002151
:10393000CDE90801C5F3025002280CD001CFC11710
:10394000021E71F100020CDA0023D0EB030063EBDE
:1039500001012D2208E0FF1D27F00707F7E802010B
:10396000EEE72A0504D52B228DF8282001223CE021
:10397000EA073AD02022F7E70A2000E010200021D1
:10398000CDE9080107E01020002145F00405CDE94C
:1039900008014FF00808C5F30250022810D001CFEB
:1039A00000214FF0000A2A0720D52278702A0DD076
:1039B000DDE908C38CF0100C5CEA030C0CD015E0B8
:1039C000FF1D27F00707F7E80201EAE740228DF81C
:1039D00028204FF0010A0CE050EA010306D0302302
:1039E0008DF828308DF82920022292462278582A14
:1039F00004D024A20DF120090B9209E026A2F9E7D8
:103A0000DDE90823FCF766FC0B9B9B5C09F8013D94
:103A100050EA0102F4D1ADEB0900203008906807AC
:103A200001D44FF001080899884503DD0898A8EBF8
:103A3000000000E000208046002506E00AA85A4663
:103A4000405D0F9990476D1C761C5545F6DB04E0F0
:103A500030205A460F999047761CB8F10001A8F122
:103A60000108F5DC05E019F8010B5A460F9990475B
:103A7000761C0899481E08900029F4DC641CC4E6F2
:103A80000928010030313233343536373839616234
:103A900063646566000000003031323334353637F8
:103AA00038394142434445460000000013B50448FC
:103AB000642301226946FEF741FE009802B010BD62
:103AC0001C000020484C0025DFF820A1206810F4DD
:103AD000003F11D1BFF34F8FBFF36F8FCAF8005073
:103AE000BFF34F8FBFF36F8F206840F4003020602A
:103AF000BFF34F8FBFF36F8F3D4F2068A7F10408CE
:103B000043F6FF7610F4803F1ED13D60BFF34F8F28
:103B10003849D8F80000C0F34E3CC0F3C90906EAA2
:103B20004C12484642EA80730B60401EFAD2BCF148
:103B3000010CF4D2BFF34F8F206840F48030206036
:103B4000BFF34F8FBFF36F8FFCF76EFDFFF72AFABD
:103B5000FEF75CFEFFF700FE27A0FFF727FEFEF74B
:103B6000D3FFFFF765F8BFF34F8FBFF36F8F206868
:103B700020F400302060CAF80050BFF34F8FBFF32D
:103B80006F8F3D60BFF34F8F206820F4803020603E
:103B9000BFF34F8FD8F800002249C0F34E32C0F374
:103BA000C90406EA4213204643EA807CC1F800C0FB
:103BB000401EF9D2521EF4D2BFF34F8FBFF36F8F66
:103BC0004FF0E020184C4FF01041056145618561D0
:103BD00048682060086880F3088814A0FFF7E6FDB5
:103BE00020688047FEE7000014ED00E050EF00E0A1
:103BF00084ED00E060EF00E00D0A2A2A2A2A2A2A32
:103C00002A2A2A2A2A2A2A2A2A2A2A2A2A2A2A2A14
:103C10002A2A2A2A2A2A2A2A2A2A2A2A2A2A2A2A04
:103C20002A0D0A0074EF00E000000020CCF8D7AAAB
:103C3000B5BD573235513634D4CBD0D0D3C3BBA762
:103C4000B3CCD0F23E3E3E0D0A0D0A000100020048
:103C50000400060008000A000C00100020004000CC
:103C600080000001010101030701000008040204B3
:103C70000801010100000000010203040102030425
:103C800006070809A43C0008000000201C000000F2
:103C9000CC370008C03C00081C000020DC040000F9
:103CA000DC370008000000000100000010000000E8
:103CB000000000000090D0030090D003000000003E
:040000050800029954
:00000001FF
